:100000000C94B4010C9435060C94D1010C94D101DC
:100010000C94D1010C94D1010C94D1010C94D10118
:100020000C94D1010C94D1010C94D1010C94D10108
:100030000C94D1010C94D1010C94D1010C94D101F8
:100040000C94D1010C94D1010C94D1010C94820533
:100050000C94D1010C94D1010C94D1010C945C0549
:100060000C94D1010C94D1010C94D1010C94D101C8
:10007000000000000000000000065F5F06000000B6
:100080000007070007070000147F7F147F7F14001C
:10009000242E6B6B3A120000466630180C66620024
:1000A000307A4F5D377A48000407030000000000F3
:1000B000001C3E63410000000041633E1C00000044
:1000C000082A3E1C1C3E2A0808083E3E080800007C
:1000D00000A0E06000000000080808080808000010
:1000E00000006060000000006030180C0603010092
:1000F0003E7F594D7F3E000042427F7F40400000DE
:10010000627359496F660000226349497F360000D7
:10011000181C16137F7F1000276745457D390000A6
:100120003C7E4B4979300000036371190F070000D2
:10013000367F49497F360000064F49693F1E00005F
:1001400000006C6C0000000000A0EC6C00000000DF
:10015000081C366341000000141414141414000029
:10016000004163361C080000020351590F060000CD
:100170003E7F415D5D1F1E007C7E13137E7C000070
:10018000417F7F49497F36001C3E63414163220025
:10019000417F7F41637F1C00417F7F495D41630058
:1001A000417F7F491D0103001C3E63415173720072
:1001B0007F7F08087F7F000000417F7F41000000B3
:1001C000307040417F3F0100417F7F081C77630012
:1001D000417F7F41406070007F7F060C067F7F007B
:1001E0007F7F060C187F7F001C3E6341633E1C002E
:1001F000417F7F49090F06001E3F21717F5E00008D
:10020000417F7F19396F460026674D597B320000C8
:1002100003417F7F410300007F7F40407F7F0000DC
:100220001F3F60603F1F00007F7F3018307F7F00DE
:1002300063771C081C776300074F78784F0700002E
:100240006773594D47637100007F7F414100000093
:100250000103060C183060000041417F7F00000060
:10026000080C0603060C0800808080808080808057
:100270000000030704000000207454543C78400040
:10028000413F7F44447C3800387C44446C28000063
:10029000307848493F7F4000387C54545C18000057
:1002A000487E7F490302000098BCA4A4F87C0400A7
:1002B000417F7F08047C780000447D7D4000000081
:1002C00040C484FD7D000000417F7F10386C4400F5
:1002D00000417F7F400000007C7C0C180C7C780083
:1002E0007C7C04047C780000387C44447C3800002A
:1002F00084FCF8A4243C1800183C24A4F8FC8400D6
:10030000447C78441C180000485C54547424000059
:1003100000043E7F442400003C7C40403C7C400084
:100320001C3C60603C1C00003C7C6030607C3C00FD
:10033000446C3810386C44009CBCA0A0FC7C0000CD
:100340004C64745C4C64000008083E774141000036
:1003500000000077770000004141773E0808000068
:10036000020301030203010011241FBECFEFD4E0FA
:10037000DEBFCDBF12E0A0E0B1E0EAE1F7E102C0EC
:1003800005900D92AA33B107D9F722E0AAE3B2E0B3
:1003900001C01D92AE34B207E1F70E94BC050C9477
:1003A0008B0B0C94000087B3816087BB81B38F7E79
:1003B00081BB82B3806182BB0895109200140895BE
:1003C00080B38295817008950E94E0018823E1F353
:1003D00080910014089580E00E94A403F8948BB7E4
:1003E00080648BBF85B78D7F85BF81B38B7F81BBD9
:1003F00082B3846082BB789408950F931F93CF9348
:100400008C01FC0160817181769567957695679581
:100410007695679581E30E945703F80160816295A4
:10042000660F607E82E30E945703F801628185E3D4
:100430000E945703C0E009C0F801EC0FF11D638171
:1004400086E38C0F0E945703CF5FF8018281C817A3
:1004500098F380E00E946B03CF911F910F91089554
:10046000FF920F931F93CF93DF938C018BE0F801E2
:1004700011928A95E9F782E60E944503C82FC2953A
:10048000C695C77081E60E94450390E0880F991FCA
:10049000880F991F880F991F8C2BF80191838083F7
:1004A00085E60E944503F82EF8018283C0E0D0E083
:1004B00009C08C2F8A590E944503F801EC0FFD1FDB
:1004C000838321968F2D90E0C817D90794F3C80134
:1004D000DF91CF911F910F91FF900895EF92FF92BE
:1004E0000F931F93CF9386E091E09F938F930E9489
:1004F000C6080F900F90C0E000E010E0E12CF12C56
:100500000BC00E94DD010E94E401080F111D0E9432
:10051000E401E80EF11CCF5FC83098F316950795FB
:100520001695079516950795F694E794F694E79433
:10053000F694E7941F930F93FF92EF9280E291E07D
:100540009F938F930E94C608EBE3F2E0F182E08272
:10055000138302830F900F900F900F900F900F90C6
:10056000CF911F910F91FF90EF90089581B38F7DF0
:1005700081BB82B3806282BB0E946E0208950F939A
:100580001F93CF93DF930E94DD010E94E401082FA7
:1005900010E0CBE3D2E08A819B81081B190B0E94FB
:1005A000E401282F30E00990D881C02D2C1B3D0B91
:1005B000C8019695982F882797958795801B910B52
:1005C000101611064CF440913D0250913E026FEF1F
:1005D00070E0641B750B04C060913D0270913E0297
:1005E0000E94B006162F472FE62FF72FC9019695C8
:1005F000982F882797958795821B930B12161306C1
:1006000034F42FEF30E0B9016C1B7D0BEB01BE0120
:100610000E94B006862F972FE238FF4F44F0212F1B
:10062000342F203831052CF02FE730E002C021E8CC
:100630003FEF82389F4F44F0462F572F40385105E7
:100640002CF04FE750E002C041E85FEFBA01C9016A
:10065000DF91CF911F910F910895CF930E94DD01FB
:100660000E94E4010E94E4010E94E401C82F0E945C
:10067000E401982F8C2FCF9108950E943B0580ECC8
:100680000E9422050E942B050895CF93C82F0E9437
:100690003B0583E00E9422058C2F0E9422050E94C8
:1006A0002605C82F0E942B058C2FCF910895CF933C
:1006B000DF93D82FC62F0E943B0582E00E942205BF
:1006C0008D2F0E9422058C2F0E9422050E942B054F
:1006D000DF91CF910895CF93C82F0E943B058BEAFD
:1006E000C89F812D11248695982F990F890FC81BBB
:1006F00031F0C13031F0C23031F081E805C081E81D
:1007000003C082E801C084E80E9422050E942B05F4
:10071000CF9108951F93CF93DF93182FD62FC42F17
:100720000E943B0585E00E942205812F0E94220540
:100730008D2F0E9422058C2F0E9422050E942B05DE
:10074000DF91CF911F910895CF93DF93D82F0E940F
:100750002F050E943D038FEF9FE20197F1F700C044
:1007600000008EE00E944503C82F807E8038D9F0BB
:1007700089E391E09F938F930E94C6081F9280E8BF
:100780008F931F92CF938EE691E09F938F930E9459
:10079000C6082DB73EB7285F3F4F0FB6F8943EBF4F
:1007A0000FBE2DBF6CC08DE891E09F938F930E9488
:1007B000C60863EC8AE20E94570361EB89E20E945B
:1007C000570365E088E20E9457038AE20E944503CE
:1007D0001F928F9384EB91E09F938F930E94C608A2
:1007E00089E20E9445031F928F938FEB91E09F93C4
:1007F0008F930E94C60888E20E9445031F928F9340
:100800008AEC91E09F938F930E94C60841E06FEFBE
:100810008BE20E948A034D2F60EE8FE00E948A03D4
:100820008EE00E944503C82F807E2DB73EB7225F21
:100830003F4F0FB6F8943EBF0FBE2DBF8D17C9F0C6
:1008400085ED91E09F938F930E94C6081F92DF93DE
:100850001F92CF938EE691E09F938F930E94C608DC
:100860008DB79EB708960FB6F8949EBF0FBE8DBF8A
:1008700006C08FEF9FE20197F1F700C00000DF9103
:10088000CF91089580930010089580550E944204EE
:100890000895CF93C82F8F700E9442048C2F8295A9
:1008A0008F7080610E944204CF910895CF93C62F2C
:1008B0000E9445048C2F0E944904CF910895CF9344
:1008C000DF93D82FC62F81E20E9442048D2F0E9411
:1008D00042048C2F0E944204DF91CF910895CF9360
:1008E000DF93D82FC62F82E20E9442048D2F0E94F0
:1008F00042048C2F0E944204DF91CF91089580938F
:1009000000120895CF9360E00E945604C0E004C036
:1009100080E00E947F04CF5FCC23D4F7CF9108956D
:10092000CF93C0E004C08C2F0E948204CF5FC830F8
:10093000D0F3CF9108950E9490046FE780E00E9469
:100940005F0467E080E00E946F0460E080E00E9446
:10095000560408958EEA0E94420481EA0E944204ED
:100960008AED0E94420482E10E94420488EC0E94C7
:10097000420488EA0E9442048FE30E94420485ED0B
:100980000E94420480E80E94420489ED0E944204D1
:1009900081E20E9442048BED0E94420480E30E94A7
:1009A00042048DEA0E94420480E00E94420483EDEA
:1009B0000E94420480E00E94420480E40E944204BB
:1009C00080E20E94420480E00E94420481E80E948A
:1009D00042048FEF0E94420486EA0E94420484EAA5
:1009E0000E9442048FEA0E94420460E070E08DE1C0
:1009F00095E00E94F9079093400280933F020E9485
:100A00009B040895CF93DF93D0EED80FC0E010C0C1
:100A1000ED2FF0E0EE0FFF1FEE0FFF1FEE0FFF1F99
:100A2000EC0FF11DE059FF4F84910E947F04CF5FCE
:100A3000C83070F3DF91CF9108950E94020580E0E5
:100A400090E008958FB9779BFECF08958AEA0E94BF
:100A500022058FB1089588B3806188BB089587B35C
:100A6000806B87BB8DB181658DB98DB1837F8DB969
:100A70000E942B05089588B38F7E88BB0895F89453
:100A800090BD89B988ED8AB98EE880BD60E070E0DC
:100A900082E795E00E94F907909342028093410219
:100AA00090934B0280934A02789487B3866087BB09
:100AB00088B3866088BB08951F920F920FB60F927D
:100AC00011248F939F9398B384E0892788BB9F91CB
:100AD0008F910F900FBE0F901F9018955D9BFECFCA
:100AE0008CB908950E946E0580E090E008958BB166
:100AF0008C7131F498B382E0892788BB8CB108955A
:100B00008FEF08951F920F920FB60F9211242F931B
:100B10003F934F935F936F937F938F939F93AF9385
:100B2000BF93EF93FF930E947705809343028091D8
:100B300043021F928F9387E092E09F938F930E94CE
:100B4000C6080F900F900F900F90FF91EF91BF91FB
:100B5000AF919F918F917F916F915F914F913F9155
:100B60002F910F900FBE0F901F90189585B780683A
:100B700085BF80E280BF0895CF93DF93CDB7DEB706
:100B80002B970FB6F894DEBF0FBECDBF8FE190E07C
:100B90000E943F050E94B6050E94D3010E94B60242
:100BA0000E94EB010E94AA040E949B0420913F0234
:100BB0003091400248E050E061E070E083E192E073
:100BC0000E949208D12CF12C8CEC9CE40197F1F757
:100BD00000C000000E94BF02062FE82E0E942D03D5
:100BE000182F802F002E000C990B8F199109F7FCFC
:100BF00093959C01992324F422273327281B390B32
:100C0000243031056CF4812F90E08D1991099C01FD
:100C100022F422273327281B390B24303105A4F274
:100C2000CE0101962BE0FC0111922A95E9F721E013
:100C300030E03A83298323E02B830C83ED821E83EB
:100C40000E94FD011F921F931F921F938CE192E05F
:100C50009F938F930E94C6080F900F900F900F9054
:100C60000F900F90D12EF02EAFCF1F920F920FB694
:100C70000F9211242F933F934F935F936F937F9322
:100C80008F939F93AF93BF93EF93FF93CF93DF9394
:100C9000CDB7DEB72B97DEBFCDBFCE0101960E9448
:100CA000300289819A810097F9F460E080E00E9427
:100CB000560480913A0291E0980F90933A021F9265
:100CC0008F9387E292E09F938F93809140028F935E
:100CD00080913F028F930E9444080F900F900F90D5
:100CE0000F900F900F901EC00297E1F481E00E94D8
:100CF000820460E081E00E9456048C811F928F93F1
:100D000081E392E09F938F93809140028F93809133
:100D10003F028F930E9444080F900F900F900F9006
:100D20000F900F9040E061E08CE20E948A032B96C6
:100D30000FB6F894DEBF0FBECDBFDF91CF91FF910C
:100D4000EF91BF91AF919F918F917F916F915F9143
:100D50004F913F912F910F900FBE0F901F901895BC
:100D600097FB072E16F4009407D077FD09D00E9458
:100D7000C40607FC05D03EF4909581959F4F0895D9
:100D8000709561957F4F0895AA1BBB1B51E107C069
:100D9000AA1FBB1FA617B70710F0A61BB70B881F0B
:100DA000991F5A95A9F780959095BC01CD0108959A
:100DB0000F931F93CF93DF938230910510F482E05D
:100DC00090E0E0914602F091470220E030E0A0E0A0
:100DD000B0E0309719F140815181028113814817A9
:100DE0005907C8F08417950769F4109731F01296E7
:100DF0000C93129713961C9327C0009346021093EE
:100E0000470222C02115310519F04217530718F483
:100E10009A01BD01EF01DF01F801DBCF211531059A
:100E2000F9F0281B390B2430310580F48A819B812D
:100E30006115710521F0FB019383828304C09093B7
:100E4000470280934602FE01329644C0FE01E20F43
:100E5000F31F8193919322503109398328833AC03B
:100E60002091440230914502232B41F4209102014C
:100E700030910301309345022093440220910001F8
:100E8000309101012115310541F42DB73EB7409154
:100E9000040150910501241B350BE0914402F091AF
:100EA0004502E217F307A0F42E1B3F0B2817390762
:100EB00078F0AC014E5F5F4F2417350748F04E0FB6
:100EC0005F1F50934502409344028193919302C067
:100ED000E0E0F0E0CF01DF91CF911F910F910895F5
:100EE000CF93DF93009709F481C0FC0132971382FE
:100EF0001282A0914602B0914702109781F420819E
:100F00003181820F931F20914402309145022817AE
:100F1000390751F5F0934502E093440267C0ED01B3
:100F200020E030E0CE17DF0740F44A815B819E016C
:100F300041155105F1F0EA01F5CFD383C283408119
:100F40005181840F951FC817D90759F48881998159
:100F5000840F951F0296918380838A819B8193835E
:100F600082832115310529F4F0934702E09346026C
:100F70003DC0E901FB83EA8349915991C40FD51F14
:100F8000EC17FD0761F480819181840F951F029613
:100F9000E90199838883828193819B838A83E0E03E
:100FA000F0E012968D919C911397009719F0FD0136
:100FB000DC01F7CF8D919C9111979D012E5F3F4FE2
:100FC000820F931F20914402309145022817390760
:100FD00069F4309729F4109247021092460202C039
:100FE00013821282B0934502A0934402DF91CF9105
:100FF00008950F931F93CF93DF93009731F46115FA
:10100000710519F480E090E03AC08B01EC016EE0CC
:1010100070E081E090E00E94BD0AFC01892B91F311
:1010200080E883830115110571F01387028781E839
:1010300083838091480290914902892B21F4F09397
:101040004902E09348022097C9F0D187C087838185
:101050008260838380914A0290914B02892B71F4C4
:10106000F0934B02E0934A0280914C0290914D0222
:10107000892B21F4F0934D02E0934C02CF01DF91D4
:10108000CF911F910F910895A0E0B0E0EAE4F8E05D
:101090000C94640BAE01475F5F4F6F8178858D8143
:1010A0009E810E94DC08E2E00C94800B0F931F935A
:1010B000CF93DF93FB01238121FD03C08FEF9FEFCF
:1010C0002CC022FF16C046815781248135814217EA
:1010D000530744F4A081B1819D012F5F3F4F3183BD
:1010E00020838C93268137812F5F3F4F3783268360
:1010F00014C08B01EC01FB010084F185E02D099502
:10110000892BE1F6D80116968D919C91179701963F
:1011100017969C938E931697CE01DF91CF911F91D6
:101120000F910895A0E0B0E0E8E9F8E00C945A0BC4
:101130005B014A017901D90113962C9121FF1DC051
:10114000C0E0D0E0C815D905D9F08C016C01CA0CFB
:10115000DB1CC8010C151D0571F00F5F1F4FD70177
:101160001896ED91FC911997B701DC018C910995C6
:10117000892B79F305C02196E5CF80E090E001C08E
:10118000CE01CDB7DEB7ECE00C94760BA0E0B0E07A
:10119000ECECF8E00C94640BAE014B5F5F4FFA018E
:1011A00061917191AF0180914A0290914B020E942E
:1011B000DC08E2E00C94800BABE0B0E0E2EEF8E09B
:1011C0000C94540B6C017B018A01FC01178216827E
:1011D000838181FFCCC1CE0101963C01F601938150
:1011E000F70193FD859193FF81917F01882309F495
:1011F000BAC1853239F493FD859193FF81917F01C6
:10120000853229F4B60190E00E945608E7CF912C70
:10121000212C312CFFE1F315D8F08B3279F038F422
:10122000803279F08332A1F4232D20611DC08D32EC
:1012300061F0803369F4232D216016C0832D826014
:10124000382EE32DE4603E2E2AC0F32DF8601DC039
:1012500037FC2DC020ED280F2A3040F08E32B9F433
:1012600036FC81C1232D2064322E19C036FE06C003
:101270008AE0989E200D1124922E11C0EAE02E9E45
:10128000200D1124222EF32DF0623F2E08C08C3643
:1012900021F4832D8068382E02C0883641F4F7018E
:1012A00093FD859193FF81917F018111B3CF982F99
:1012B0009F7D9554933028F40C5F1F4F9FE39983D3
:1012C0000DC0833631F0833771F0833509F059C092
:1012D00021C0F801808189830E5F1F4F8824839489
:1012E000912C530113C02801F2E04F0E511CF8015C
:1012F000A080B18036FE03C0692D70E002C06FEFA0
:101300007FEFC5010E94EB0A4C018201F32DFF77AC
:101310003F2E16C0280122E0420E511CF801A08089
:10132000B18036FE03C0692D70E002C06FEF7FEF21
:10133000C5010E94D90A4C01F32DF0683F2E8201AD
:1013400033FC1BC0822D90E088169906B0F4B601DC
:1013500080E290E00E9456082A94F4CFF50137FC11
:10136000859137FE81915F01B60190E00E94560899
:1013700021102A9421E0821A91088114910471F7B6
:10138000E8C0843611F0893641F5F80137FE07C010
:1013900060817181828193810C5F1F4F08C06081E1
:1013A0007181072E000C880B990B0E5F1F4FF32DD8
:1013B000FF763F2E97FF09C09095809570956195B7
:1013C0007F4F8F4F9F4FF0683F2E2AE030E0A30100
:1013D0000E94F60A882E861845C0853731F4232DE1
:1013E0002F7EB22E2AE030E025C0932D997FB92EB2
:1013F0008F36C1F018F4883579F0B5C0803719F010
:10140000883721F0B0C0E92FE061BE2EB4FE0DC0D8
:10141000FB2DF460BF2E09C034FE0AC0292F2660C0
:10142000B22E06C028E030E005C020E130E002C066
:1014300020E132E0F801B7FE07C06081718182814E
:1014400093810C5F1F4F06C06081718180E090E046
:101450000E5F1F4FA3010E94F60A882E8618FB2DEF
:10146000FF773F2E36FE0DC0232D2E7FA22E89142E
:1014700058F434FE0BC032FC09C0832D8E7EA82E9A
:1014800005C0B82CA32C03C0B82C01C0B92CA4FEF5
:101490000FC0FE01E80DF11D8081803321F49A2DEB
:1014A000997EA92E09C0A2FE06C0B394B39404C0CD
:1014B0008A2D867809F0B394A3FC11C0A0FE06C063
:1014C000B21488F4280C922C9B180EC0B21460F44D
:1014D000B60180E290E00E945608B394F7CFB214B0
:1014E00018F42B1802C0982C212CA4FE10C0B601B1
:1014F00080E390E00E945608A2FE17C0A1FC03C042
:1015000088E790E002C088E590E0B6010CC08A2D23
:10151000867859F0A1FE02C08BE201C080E2A7FCF0
:101520008DE2B60190E00E945608891438F4B601A5
:1015300080E390E00E9456089A94F7CF8A94F301D2
:10154000E80DF11D8081B60190E00E9456088110DF
:10155000F5CF222009F442CEB60180E290E00E944D
:1015600056082A94F6CFF6018681978102C08FEF44
:101570009FEF2B96E2E10C94700B0F931F93CF9388
:10158000DF93869F8001879F100D969F100D112479
:10159000C8010E94D806EC01009729F0A80160E07C
:1015A00070E00E94E40ACE01DF91CF911F910F916C
:1015B0000895FC010590615070400110D8F78095A6
:1015C00090958E0F9F1F0895DC0101C06D934150CF
:1015D0005040E0F70895FC01615070400190011007
:1015E000D8F7809590958E0F9F1F0895FA01AA272E
:1015F000283051F1203181F1E8946F936E7F6E5F56
:101600007F4F8F4F9F4FAF4FB1E03ED0B4E03CD003
:10161000670F781F891F9A1FA11D680F791F8A1FE6
:10162000911DA11D6A0F711D811D911DA11D20D04D
:1016300009F468943F912AE0269F11243019305D07
:101640003193DEF6CF010895462F4770405D4193F8
:10165000B3E00FD0C9F7F6CF462F4F70405D4A3345
:1016600018F0495D31FD4052419302D0A9F7EACF0D
:10167000B4E0A6959795879577956795BA95C9F73C
:1016800000976105710508959B01AC010A2E06942F
:101690005795479537952795BA95C9F7620F731FE8
:1016A000841F951FA01D08952F923F924F925F9225
:1016B0006F927F928F929F92AF92BF92CF92DF9262
:1016C000EF92FF920F931F93CF93DF93CDB7DEB7C7
:1016D000CA1BDB0B0FB6F894DEBF0FBECDBF09945B
:1016E0002A88398848885F846E847D848C849B84B2
:1016F000AA84B984C884DF80EE80FD800C811B81C0
:10170000AA81B981CE0FD11D0FB6F894DEBF0FBEEE
:0A171000CDBFED010895F894FFCF5E
:10171A0000004E0220000A0D63616C6962726174F6
:10172A00696E672067616D657061642E2E2E2000D8
:10173A00646F6E652E2043454E544552203D205B12
:10174A0025642C25645D0A0D000A4D43503235315B
:10175A0035206973204E4F5420696E20636F6E6680
:10176A00696775726174696F6E206D6F6465206157
:10177A0066746572207265736574210A0D0072655C
:10178A0061642076616C75653A2025782073686FEC
:10179A00756C642062653A2025780A0D000A4D436B
:1017AA00503235313520697320696E20636F6E6659
:1017BA00696775726174696F6E206D6F64652E2E2C
:1017CA002E0A0D00434E46313A2025780A0D004371
:1017DA004E46323A2025780A0D00434E46333A20C7
:1017EA0025780A0D000A4D43503235313520697388
:1017FA00204E4F5420696E20444553495245442097
:10180A00286C6F6F706261636B206F72206E6F72EB
:10181A006D616C290A0D00406563686F3A20256383
:10182A000A0D0053434F52453A2030002564202DBB
:10183A003E2025640A0D0053434F52453A20256441
:0A184A000070776D3A20256400005D
:00000001FF
