S011000070696E672D706F6E672E7372656384
S11300000C94B4010C9462090C94D1010C94D101A8
S11300100C94D1010C94D1010C94D1010C94D10114
S11300200C94D1010C94D1010C94D1010C94D10104
S11300300C94D1010C94D1010C94D1010C94D101F4
S11300400C94D1010C94D1010C94D1010C94D706D9
S11300500C94D1010C94D1010C94D1010C94B106EF
S11300600C94D1010C94D1010C94D1010C94D101C4
S1130070000000000000000000065F5F06000000B2
S11300800007070007070000147F7F147F7F140018
S1130090242E6B6B3A120000466630180C66620020
S11300A0307A4F5D377A48000407030000000000EF
S11300B0001C3E63410000000041633E1C00000040
S11300C0082A3E1C1C3E2A0808083E3E0808000078
S11300D000A0E0600000000008080808080800000C
S11300E000006060000000006030180C060301008E
S11300F03E7F594D7F3E000042427F7F40400000DA
S1130100627359496F660000226349497F360000D3
S1130110181C16137F7F1000276745457D390000A2
S11301203C7E4B4979300000036371190F070000CE
S1130130367F49497F360000064F49693F1E00005B
S113014000006C6C0000000000A0EC6C00000000DB
S1130150081C366341000000141414141414000025
S1130160004163361C080000020351590F060000C9
S11301703E7F415D5D1F1E007C7E13137E7C00006C
S1130180417F7F49497F36001C3E63414163220021
S1130190417F7F41637F1C00417F7F495D41630054
S11301A0417F7F491D0103001C3E6341517372006E
S11301B07F7F08087F7F000000417F7F41000000AF
S11301C0307040417F3F0100417F7F081C7763000E
S11301D0417F7F41406070007F7F060C067F7F0077
S11301E07F7F060C187F7F001C3E6341633E1C002A
S11301F0417F7F49090F06001E3F21717F5E000089
S1130200417F7F19396F460026674D597B320000C4
S113021003417F7F410300007F7F40407F7F0000D8
S11302201F3F60603F1F00007F7F3018307F7F00DA
S113023063771C081C776300074F78784F0700002A
S11302406773594D47637100007F7F41410000008F
S11302500103060C183060000041417F7F0000005C
S1130260080C0603060C0800808080808080808053
S11302700000030704000000207454543C7840003C
S1130280413F7F44447C3800387C44446C2800005F
S1130290307848493F7F4000387C54545C18000053
S11302A0487E7F490302000098BCA4A4F87C0400A3
S11302B0417F7F08047C780000447D7D400000007D
S11302C040C484FD7D000000417F7F10386C4400F1
S11302D000417F7F400000007C7C0C180C7C78007F
S11302E07C7C04047C780000387C44447C38000026
S11302F084FCF8A4243C1800183C24A4F8FC8400D2
S1130300447C78441C180000485C54547424000055
S113031000043E7F442400003C7C40403C7C400080
S11303201C3C60603C1C00003C7C6030607C3C00F9
S1130330446C3810386C44009CBCA0A0FC7C0000C9
S11303404C64745C4C64000008083E774141000032
S113035000000077770000004141773E0808000064
S1130360020301030203010011241FBECFEFD4E0F6
S1130370DEBFCDBF13E0A0E0B1E0EAEFF0E202C0DF
S113038005900D92AA34B107D9F723E0AAE4B3E0AB
S113039001C01D92A336B207E1F70E9411070C9425
S11303A07B100C94000087B3816087BB81B38F7E80
S11303B081BB82B3806182BB0895109200140895BA
S11303C080B38295817008950E94E0018823E1F34F
S11303D080910014089580E00E94D403F8948BB7B0
S11303E080648BBF85B78D7F85BF81B38B7F81BBD5
S11303F082B3846082BB789408950F931F93CF9344
S11304008C01FC016081718176956795769567957D
S11304107695679581E30E948703F8016081629570
S1130420660F607E82E30E948703F801628185E3A0
S11304300E948703C0E009C0F801EC0FF11D63813D
S113044086E38C0F0E948703CF5FF8018281C8176F
S113045098F380E00E949B03CF911F910F91089520
S1130460FF920F931F93CF93DF938C018BE0F801DE
S113047011928A95E9F782E60E947503C82FC29506
S1130480C695C77081E60E94750390E0880F991F96
S1130490880F991F880F991F8C2BF80191838083F3
S11304A085E60E947503F82EF8018283C0E0D0E04F
S11304B009C08C2F8A590E947503F801EC0FFD1FA7
S11304C0838321968F2D90E0C817D90794F3C80130
S11304D0DF91CF911F910F91FF900895EF92FF92BA
S11304E00F931F93CF938BE091E09F938F930E9480
S11304F0620D0F900F90C0E000E010E0E12CF12CB1
S11305000BC00E94DD010E94E401080F111D0E942E
S1130510E401E80EF11CCF5FC83098F316950795F7
S11305201695079516950795F694E794F694E7942F
S1130530F694E7941F930F93FF92EF9285E291E074
S11305409F938F930E94620DECE4F3E0F182E082CA
S1130550138302830F900F900F900F900F900F90C2
S1130560CF911F910F91FF90EF90089581B38F7DEC
S113057081BB82B3806282BB0E946E0208950F9396
S11305801F93CF93DF930E94DD010E94E401082FA3
S113059010E0CCE4D3E08A819B81081B190B0E94F4
S11305A0E401282F30E00990D881C02D2C1B3D0B8D
S11305B0C8019695982F882797958795801B910B4E
S11305C0101611064CF440914E0350914F036FEFF7
S11305D070E0641B750B04C060914E0370914F036F
S11305E00E94B70A162F472FE62FF72FC9019695B9
S11305F0982F882797958795821B930B12161306BD
S113060034F42FEF30E0B9016C1B7D0BEB01BE011C
S11306100E94B70A862F972FE238FF4F44F0212F0C
S1130620342F203831052CF02FE730E002C021E8C8
S11306303FEF82389F4F44F0462F572F40385105E3
S11306402CF04FE750E002C041E85FEFBA01C90166
S1130650DF91CF911F910F9108950E94BF02AB01CA
S11306609B01215C3F4F2F37310530F49C01215C05
S11306703F4F2F373105E8F0FC019C01992324F406
S113068022273327281B390BDB01552324F4AA27FF
S1130690BB27A61BB70BA217B30734F481E01E16C1
S11306A01F0654F480E008951416150624F483E01C
S11306B0089584E0089582E00895CF930E94DD01B7
S11306C00E94E4010E94E4010E94E401C82F0E94F8
S11306D0E401982F8C2FCF9108950E94900680EC0E
S11306E00E9477060E9480060895CF93C82F0E9427
S11306F0900683E00E9477068C2F0E9477060E9462
S11307007B06C82F0E9480068C2FCF910895CF932B
S1130710DF93D82FC62F0E94900682E00E947706AE
S11307208D2F0E9477068C2F0E9477060E948006E8
S1130730DF91CF910895CF93C82F0E9490068BEA42
S1130740C89F812D11248695982F990F890FC81B56
S113075031F0C13031F0C23031F081E805C081E8B8
S113076003C082E801C084E80E9477060E948006E4
S1130770CF9108951F93CF93DF93182FD62FC42FB3
S11307800E94900685E00E947706812F0E947706DA
S11307908D2F0E9477068C2F0E9477060E94800678
S11307A0DF91CF911F910895CF93DF93D82F0E94AB
S11307B084060E946D038FEF9FE20197F1F700C05A
S11307C000008EE00E947503C82F807E8038D9F027
S11307D08EE391E09F938F930E94620D1F9280E8B5
S11307E08F931F92CF9383E791E09F938F930E94FF
S11307F0620D2DB73EB7285F3F4F0FB6F8943EBF4A
S11308000FBE2DBF6CC082E991E09F938F930E942D
S1130810620D63EC8AE20E94870361EB89E20E9425
S1130820870365E088E20E9487038AE20E947503D9
S11308301F928F9389EB91E09F938F930E94620D97
S113084089E20E9475031F928F9384EC91E09F9339
S11308508F930E94620D88E20E9475031F928F930A
S11308608FEC91E09F938F930E94620D41E06FEFB4
S11308708BE20E94BA034D2F60EE8FE00E94BA0310
S11308808EE00E947503C82F807E2DB73EB7225F8D
S11308903F4F0FB6F8943EBF0FBE2DBF8D17C9F062
S11308A08AED91E09F938F930E94620D1F92DF93D4
S11308B01F92CF9383E791E09F938F930E94620DE1
S11308C08DB79EB708960FB6F8949EBF0FBE8DBF26
S11308D006C08FEF9FE20197F1F700C00000DF919F
S11308E0CF9108950F931F93CF938C01C62F0E942D
S11308F0E50560E08C2F0E9499052091500330910A
S1130900510342E050E061E070E08CE092E00E942C
S11309102E0DC0E017C060E18C2F0E949905EC2FCA
S1130920F0E03396EE0FFF1FE00FF11F0190F0810E
S1130930E02D6091500370915103808191810E9458
S1130940040DCF5FF8018689C81728F3CF911F9152
S11309500F9108958C01C0E02FEF8FE791E02150B3
S113096080409040E1F700C000C00E942D03813018
S113097051F028F08230B1F08330D1F036C0CC236E
S1130980A1F1C15032C02C2F30E0F8014689842FE8
S113099090E001972817390714F4CF5F26C0CFEFF2
S11309A0C40F23C0F801848195810097C9F41DC048
S11309B0EC2FF0E03396EE0FFF1FE00FF11FA08144
S11309C0B1811296ED91FC911397309711F009952E
S11309D00CC016968D919C911797892B21F405C014
S11309E08C01C0E002C08D01C0E00E94F0056C2FB4
S11309F0C8010E947204B0CFEF92FF920F931F932D
S1130A00CF93DF93EC017B018A0187E190E00E94A0
S1130A10EE0AFC01F182E08213830283D583C4834E
S1130A20168A209761F0EE8921E02E0F2E8BF0E0DC
S1130A303396EE0FFF1FEC0FFD1F91838083DF9130
S1130A40CF911F910F91FF90EF900895CF93DF9373
S1130A50CDB7DEB767970FB6F894DEBF0FBECDBF34
S1130A608E010F5F1F4F87E1F80111928A95E9F714
S1130A708FE092E09A83898343E259E064E172E073
S1130A80C8010E94FC0440E050E06DE172E0C8013E
S1130A900E94FC047C0145E657E066E272E00E9495
S1130AA0FC0449E657E06AE272E0C7010E94FC04D4
S1130AB04DE657E060E372E0C7010E94FC0441E7A1
S1130AC057E065E372E0C7010E94FC0445E757E084
S1130AD069E372E0C7010E94FC0440E050E06FE368
S1130AE072E0C8010E94FC047C0141EC59E064E41A
S1130AF072E00E94FC044CE15AE069E472E0C70130
S1130B000E94FC04C8010E94AA0480930010089566
S1130B1080550E9485050895CF93C82F8F700E9439
S1130B2085058C2F82958F7080610E948505CF91F9
S1130B300895CF93C62F0E9488058C2F0E948C05A0
S1130B40CF91089580914A03882321F086EA0E9478
S1130B50850503C087EA0E94850590914A0381E0D8
S1130B60892780934A030895CF93DF93D82FC62F04
S1130B7081E20E9485058D2F0E9485058C2F0E949D
S1130B808505DF91CF910895CF93DF93D82FC62F9A
S1130B9082E20E9485058D2F0E9485058C2F0E947C
S1130BA08505DF91CF910895809300120895CF9326
S1130BB060E00E949905C0E004C080E00E94D40572
S1130BC0CF5FCC23D4F7CF910895CF93C0E004C076
S1130BD08C2F0E94D705CF5FC830D0F3CF910895F2
S1130BE00E94E5056FE780E00E94B40567E080E0BD
S1130BF00E94C40560E080E00E94990508958EEA91
S1130C000E94850581EA0E9485058AED0E9485057A
S1130C1082E10E94850588EC0E94850588EA0E948D
S1130C2085058FE30E94850585ED0E94850580E892
S1130C300E94850589ED0E94850581E20E94850553
S1130C408BED0E94850580E30E9485058DEA0E9454
S1130C50850580E00E94850583ED0E94850580E07E
S1130C600E94850580E40E94850580E20E94850536
S1130C7080E00E94850581E80E9485058FEF0E942F
S1130C80850586EA0E94850584EA0E9485058FEA27
S1130C900E94850560E070E082E796E00E946B0C9C
S1130CA090935103809350030E94F0050895CF93CD
S1130CB0DF93D0EED80FC0E010C0ED2FF0E0EE0FC0
S1130CC0FF1FEE0FFF1FEE0FFF1FEC0FF11DE0598A
S1130CD0FF4F84910E94D405CF5FC83070F3DF9139
S1130CE0CF9108950E94570680E090E008958FB94F
S1130CF0779BFECF08958AEA0E9477068FB1089504
S1130D0088B3806188BB089587B3806B87BB8DB13E
S1130D1081658DB98DB1837F8DB90E948006089558
S1130D2088B38F7E88BB0895F89490BD89B988ED07
S1130D308AB98EE880BD60E070E087EC96E00E949E
S1130D406B0C9093530380935203909360038093AE
S1130D505F03789487B3866087BB88B3866088BB5B
S1130D6008951F920F920FB60F9211248F939F93A1
S1130D7098B384E0892788BB9F918F910F900FBE11
S1130D800F901F9018955D9BFECF8CB908950E941B
S1130D90C30680E090E008958BB18C7131F498B370
S1130DA082E0892788BB8CB108958FEF08951F9244
S1130DB00F920FB60F9211242F933F934F935F938B
S1130DC06F937F938F939F93AF93BF93EF93FF930F
S1130DD00E94CC0680935403809154031F928F93F6
S1130DE08EE492E09F938F930E94620D0F900F9078
S1130DF00F900F90FF91EF91BF91AF919F918F91C1
S1130E007F916F915F914F913F912F910F900FBE02
S1130E100F901F90189585B7806885BF80E280BFCA
S1130E2008958FE190E00E9494060E940B070E94AF
S1130E30D3010E94B6020E94EB010E94FF050E94AA
S1130E40F0050E94260580E090E008951F93CF935B
S1130E50DF93CDB7DEB72B970FB6F894DEBF0FBE86
S1130E60CDBF182FCE0101962BE0FC0111922A95DB
S1130E70E9F724E030E03A83298321E02B831C83C3
S1130E800E94FD011F921F938AE592E09F938F9326
S1130E900E94620D0E94A205FFEF2FE781E0F1504E
S1130EA020408040E1F700C000C00E94A2050F90DE
S1130EB00F900F900F902B960FB6F894DEBF0FBED5
S1130EC0CDBFDF91CF911F91089580E00E94260746
S1130ED0089581E00E942607089582E00E94260773
S1130EE0089583E00E942607089584E00E9426075F
S1130EF008952F923F924F925F926F927F928F92BA
S1130F009F92AF92BF92CF92DF92EF92FF920F9394
S1130F101F93CF93DF93CDB7DEB72B970FB6F8941B
S1130F20DEBF0FBECDBF1092560310925503109230
S1130F305703109258030E94E50560E080E00E9488
S1130F40990580910A011F928F9388E792E09F93FD
S1130F508F93809151038F93809150038F930E94BC
S1130F60B60C0F900F900F900F900F900F90F12CE4
S1130F7022242394412C512C612C712C46C18CECDD
S1130F809CE40197F1F700C000000E94BF02B62E56
S1130F90382E0E945D03982E892E00B3007210E053
S1130FA01595079515950795159507951595079525
S1130FB015950795E02ECB2C0B2C000CDD08960123
S1130FC02719310977FC3395C901992324F488271B
S1130FD09927821B930B05971CF07B2CFF24F39419
S1130FE0A32C032C000CBB0895012619310967FCBE
S1130FF03395C901992324F488279927821B930BDD
S113100005971CF0632CFF24F394892D90E0851937
S113101091099C0122F422273327281B390B2C30F9
S113102031051CF0592CFF24F394882D90E0841989
S113103091099C0122F422273327281B390B2C30D9
S113104031051CF0482CFF24F3942E1002C0E22C2E
S113105002C0FF24F394FF20A9F0CE0101962BE0F7
S1131060FC0111922A95E9F723E030E03A832983C1
S113107025E02B837C826D825E824F82E8860E940B
S1131080FD01F12C4091550350915603405F5F4F91
S11310905093560340935503483EF3E05F0730F105
S11310A09A01369527953695279536952795A5EC7B
S11310B0B0E20E94CB0A929582958F7089279F7027
S11310C0892768EE73E0869F9001879F300D969F75
S11310D0300D1124CA01821B930B90935603809305
S11310E05503809157038F5F809357038091570373
S11310F08C3390F099E8899F912D112492959695BF
S113110097702CE3929F8019112480935703809148
S113111058038F5F8093580381E00E94D70560E0F5
S113112081E00E949905809157031F928F938091CB
S113113058031F928F9382E892E09F938F9380913C
S113114051038F93809150038F930E94B60C83E0D8
S11311500E94D70584E00E94D70560E083E00E94E6
S1131160990511271F930F931F928F921F929F929D
S1131170BF92AF92DF92CF9280E992E09F938F93D8
S1131180809151038F93809150038F930E94B60CEA
S113119080910A010FB6F894DEBF0FBECDBF811156
S11311A033C011E010934B0383E080930A0187EA74
S11311B092E09F938F930E94620D0E94E50560E088
S11311C083E00E949905209150033091510349E036
S11311D050E061E070E082EB92E00E942E0DCE01BF
S11311E001962BE0FC0111922A95E9F71B830E94DA
S11311F0FD01FFEF2FEF3DE1F15020403040E1F7DA
S113120000C000000F900F902E2C80914B03882378
S113121009F4B5CE2B960FB6F894DEBF0FBECDBF42
S1131220DF91CF911F910F91FF90EF90DF90CF90BE
S1131230BF90AF909F908F907F906F905F904F90F2
S11312403F902F900895CF93DF93CDB7DEB72B97C0
S11312500FB6F894DEBF0FBECDBF10924B03CE0184
S113126001962BE0FC0111922A95E9F721E030E088
S11312703A8329832B830E94FD010E94E50583E0C4
S11312800E94880520915003309151034EE050E0B4
S113129061E070E08CEB92E00E942E0DFFEF2FEFE7
S11312A08CE2F15020408040E1F700C000C00E9471
S11312B079072B960FB6F894DEBF0FBECDBFDF9132
S11312C0CF9108951F920F920FB60F9211242F936E
S11312D03F934F935F936F937F938F939F93AF93BA
S11312E0BF93EF93FF93CF93DF93CDB7DEB72B97E5
S11312F0DEBFCDBFCE0101960E94300289819A8162
S1131300029709F580E00E94D70560E080E00E9422
S1131310990580910A019FEF980F90930A011F92FB
S11313208F9388E792E09F938F93809151038F93DB
S1131330809150038F930E94B60C0F900F900F90E2
S11313400F900F900F9040E061E08CE20E94BA038E
S11313502B960FB6F894DEBF0FBECDBFDF91CF91B1
S1131360FF91EF91BF91AF919F918F917F916F9179
S11313705F914F913F912F910F900FBE0F901F904F
S11313801895EF92FF920F931F93CF93DF930E94D0
S11313900B078FE190E00E9494068BEC92E09F9300
S11313A08F930E94620D0E945B0C7C010E94600C72
S11313B00F900F90C0E0D0E000E010E00BC00E945E
S11313C05B0CFE01F85E80839081891711F00F5F3A
S11313D01F4F2196C11588E0D80788F3C7010E94E2
S11313E0600CC0E0D0E0E12CF12C0BC00E945B0C3F
S11313F0FE01F85E9081891719F08FEFE81AF80A58
S11314002196C11588E0D80788F3FF92EF921F93C5
S11314100F9383EE92E09F938F930E94620D0F903F
S11314200F900F900F900F900F90DF91CF911F911D
S11314300F91FF90EF9008950F931F93CF93DF9335
S11314408FE190E00E9494060E940B070E94FF0522
S11314500E94F00500E010E017C0602F660F660FD1
S1131460660F802F0E949905C0E0D0E008C08FEF7E
S11314700E94D40580E090EF0197F1F72196C830DF
S1131480D105ACF30F5F1F4F0830110534F368E743
S113149087E00E949905C0E0D0E004C08FEF0E946D
S11314A0D4052196C830D105CCF39FEF2FE781E016
S11314B0915020408040E1F700C000C068E780E020
S11314C00E949905C0E0D0E004C08FEF0E94D405CB
S11314D02196C830D105CCF39FEF2FE781E09150DE
S11314E020408040E1F700C000C0C0E00CC09FEF86
S11314F02FEF82E0915020408040E1F700C000C00F
S11315000E94A205CF5FC43090F30E94F0052091A1
S113151050033091510349E050E061E070E080E411
S113152093E00E942E0D9FEF2FEF8EE0915020400C
S11315308040E1F700C000000E94F0050E94F00521
S113154080E20EC0C1E0C80F609150037091510356
S113155090E00E94C80C80E090EF0197F1F78C2F87
S11315608F3780F3DF91CF911F910F91089597FBEF
S1131570072E16F4009407D077FD09D00E94DA0AEA
S113158007FC05D03EF4909581959F4F0895709582
S113159061957F4F0895A29FB001B39FC001A39F9F
S11315A0700D811D1124911DB29F700D811D112498
S11315B0911D0895AA1BBB1B51E107C0AA1FBB1FA5
S11315C0A617B70710F0A61BB70B881F991F5A95CB
S11315D0A9F780959095BC01CD0108950F931F93B1
S11315E0CF93DF938230910510F482E090E0E09194
S11315F05B03F0915C0320E030E0A0E0B0E03097C2
S113160019F1408151810281138148175907C8F0AB
S11316108417950769F4109731F012960C9312977A
S113162013961C9327C000935B0310935C0322C0A2
S11316302115310519F04217530718F49A01BD0119
S1131640EF01DF01F801DBCF21153105F9F0281B8B
S1131650390B2430310580F48A819B816115710531
S113166021F0FB019383828304C090935C038093F5
S11316705B03FE01329644C0FE01E20FF31F819327
S1131680919322503109398328833AC02091590318
S113169030915A03232B41F420910201309103012C
S11316A030935A0320935903209100013091010192
S11316B02115310541F42DB73EB7409104015091F5
S11316C00501241B350BE0915903F0915A03E217ED
S11316D0F307A0F42E1B3F0B2817390778F0AC0151
S11316E04E5F5F4F2417350748F04E0F5F1F50932E
S11316F05A03409359038193919302C0E0E0F0E0D0
S1131700CF01DF91CF911F910F910895CF93DF9374
S1131710009709F481C0FC01329713821282A091D0
S11317205B03B0915C03109781F420813181820FB7
S1131730931F2091590330915A032817390751F503
S1131740F0935A03E093590367C0ED0120E030E0C1
S1131750CE17DF0740F44A815B819E014115510594
S1131760F1F0EA01F5CFD383C28340815181840F24
S1131770951FC817D90759F488819981840F951F3B
S11317800296918380838A819B819383828321152E
S1131790310529F4F0935C03E0935B033DC0E90158
S11317A0FB83EA8349915991C40FD51FEC17FD07B8
S11317B061F480819181840F951F0296E9019983D8
S11317C08883828193819B838A83E0E0F0E0129690
S11317D08D919C911397009719F0FD01DC01F7CFCF
S11317E08D919C9111979D012E5F3F4F820F931F06
S11317F02091590330915A032817390769F4309717
S113180029F410925C0310925B0302C013821282CB
S1131810B0935A03A0935903DF91CF9108958F9207
S11318209F92AF92BF92CF92DF92EF92FF92CF93AB
S1131830DF93EC01688179818A819B81611571054F
S11318408105910521F464E279ED8BE597E02DE1C2
S113185033EF41E050E00E94F00F49015A019B012F
S1131860AC01A7EAB1E40E940F106B017C01ACEE5D
S1131870B4EFA50194010E941D10DC01CB018C0D75
S11318809D1DAE1DBF1DB7FF03C00197A109B04840
S113189088839983AA83BB839F77DF91CF91FF903D
S11318A0EF90DF90CF90BF90AF909F908F9008956E
S11318B00E940F0C089586E091E00E940F0C089599
S11318C0A0E0B0E08093060190930701A093080183
S11318D0B093090108950F931F93CF93DF9300975B
S11318E031F46115710519F480E090E03AC08B0180
S11318F0EC016EE070E081E090E00E94590FFC0181
S1131900892B91F380E883830115110571F0138706
S1131910028781E8838380915D0390915E03892B24
S113192021F4F0935E03E0935D032097C9F0D1871F
S1131930C08783818260838380915F039091600379
S1131940892B71F4F0936003E0935F03809161034A
S113195090916203892B21F4F0936203E093610375
S1131960CF01DF91CF911F910F910895A0E0B0E0D6
S1131970ECEBFCE00C943210AE01475F5F4F6F81DB
S113198078858D819E810E94780DE2E00C944E1042
S11319900F931F93CF93DF93FB01238121FD03C09A
S11319A08FEF9FEF2CC022FF16C046815781248100
S11319B035814217530744F4A081B1819D012F5F03
S11319C03F4F318320838C93268137812F5F3F4F94
S11319D03783268314C08B01EC01FB010084F1855D
S11319E0E02D0995892BE1F6D80116968D919C91ED
S11319F01797019617969C938E931697CE01DF91B5
S1131A00CF911F910F910895EF92FF920F931F931F
S1131A10CF93DF93DB0113962C9121FF18C08B0128
S1131A207C01D0E0C0E0F70181917F01882361F05F
S1131A30D8011896ED91FC911997B8010995892B55
S1131A4091F3DFEFCFEFEFCF8D2F9C2F02C08FEFFD
S1131A509FEFCDB7DEB7E6E00C944A10A0E0B0E00B
S1131A60E4E3FDE00C9428105B014A017901D901FB
S1131A7013962C9121FF1DC0C0E0D0E0C815D905F4
S1131A80D9F08C016C01CA0CDB1CC8010C151D05B6
S1131A9071F00F5F1F4FD7011896ED91FC911997C4
S1131AA0B701DC018C910995892B79F305C0219646
S1131AB0E5CF80E090E001C0CE01CDB7DEB7ECE029
S1131AC00C944410A0E0B0E0E8E6FDE00C94321081
S1131AD0AE014B5F5F4FFA0161917191AF0180914B
S1131AE05F03909160030E94780DE2E00C944E1025
S1131AF0ABE0B0E0EEE7FDE00C9422106C017B015A
S1131B008A01FC0117821682838181FFCCC1CE0138
S1131B1001963C01F6019381F70193FD859193FFB2
S1131B2081917F01882309F4BAC1853239F493FD88
S1131B30859193FF81917F01853229F4B60190E06C
S1131B400E94C80CE7CF912C212C312CFFE1F31516
S1131B50D8F08B3279F038F4803279F08332A1F402
S1131B60232D20611DC08D3261F0803369F4232D53
S1131B70216016C0832D8260382EE32DE4603E2E52
S1131B802AC0F32DF8601DC037FC2DC020ED280FAE
S1131B902A3040F08E32B9F436FC81C1232D206402
S1131BA0322E19C036FE06C08AE0989E200D1124FC
S1131BB0922E11C0EAE02E9E200D1124222EF32D28
S1131BC0F0623F2E08C08C3621F4832D8068382EB5
S1131BD002C0883641F4F70193FD859193FF81910A
S1131BE07F018111B3CF982F9F7D9554933028F4B2
S1131BF00C5F1F4F9FE399830DC0833631F0833709
S1131C0071F0833509F059C021C0F80180818983BE
S1131C100E5F1F4F88248394912C530113C0280115
S1131C20F2E04F0E511CF801A080B18036FE03C0D3
S1131C30692D70E002C06FEF7FEFC5010E94870F2E
S1131C404C018201F32DFF773F2E16C0280122E0BC
S1131C50420E511CF801A080B18036FE03C0692DEC
S1131C6070E002C06FEF7FEFC5010E94750F4C0159
S1131C70F32DF0683F2E820133FC1BC0822D90E0CF
S1131C8088169906B0F4B60180E290E00E94C80C70
S1131C902A94F4CFF50137FC859137FE81915F01D9
S1131CA0B60190E00E94C80C21102A9421E0821A07
S1131CB091088114910471F7E8C0843611F08936D3
S1131CC041F5F80137FE07C06081718182819381FB
S1131CD00C5F1F4F08C060817181072E000C880BB8
S1131CE0990B0E5F1F4FF32DFF763F2E97FF09C010
S1131CF090958095709561957F4F8F4F9F4FF068B9
S1131D003F2E2AE030E0A3010E94920F882E86180D
S1131D1045C0853731F4232D2F7EB22E2AE030E0E2
S1131D2025C0932D997FB92E8F36C1F018F48835CC
S1131D3079F0B5C0803719F0883721F0B0C0E92FA9
S1131D40E061BE2EB4FE0DC0FB2DF460BF2E09C0B1
S1131D5034FE0AC0292F2660B22E06C028E030E0E7
S1131D6005C020E130E002C020E132E0F801B7FE16
S1131D7007C060817181828193810C5F1F4F06C00F
S1131D806081718180E090E00E5F1F4FA3010E948B
S1131D90920F882E8618FB2DFF773F2E36FE0DC03E
S1131DA0232D2E7FA22E891458F434FE0BC032FC4E
S1131DB009C0832D8E7EA82E05C0B82CA32C03C089
S1131DC0B82C01C0B92CA4FE0FC0FE01E80DF11D12
S1131DD08081803321F49A2D997EA92E09C0A2FE18
S1131DE006C0B394B39404C08A2D867809F0B394E2
S1131DF0A3FC11C0A0FE06C0B21488F4280C922CD7
S1131E009B180EC0B21460F4B60180E290E00E9408
S1131E10C80CB394F7CFB21418F42B1802C0982C42
S1131E20212CA4FE10C0B60180E390E00E94C80CEF
S1131E30A2FE17C0A1FC03C088E790E002C088E5B9
S1131E4090E0B6010CC08A2D867859F0A1FE02C03C
S1131E508BE201C080E2A7FC8DE2B60190E00E9413
S1131E60C80C891438F4B60180E390E00E94C80CD1
S1131E709A94F7CF8A94F301E80DF11D8081B6019D
S1131E8090E00E94C80C8110F5CF222009F442CEC4
S1131E90B60180E290E00E94C80C2A94F6CFF601C5
S1131EA08681978102C08FEF9FEF2B96E2E10C941D
S1131EB03E100F931F93CF93DF93869F8001879FDC
S1131EC0100D969F100D1124C8010E94EE0AEC011A
S1131ED0009729F0A80160E070E00E94800FCE0115
S1131EE0DF91CF911F910F910895FC0105906150EE
S1131EF070400110D8F7809590958E0F9F1F08951C
S1131F00DC0101C06D9341505040E0F70895FC019D
S1131F106150704001900110D8F7809590958E0F14
S1131F209F1F0895FA01AA27283051F1203181F129
S1131F30E8946F936E7F6E5F7F4F8F4F9F4FAF4FCD
S1131F40B1E03ED0B4E03CD0670F781F891F9A1FE0
S1131F50A11D680F791F8A1F911DA11D6A0F711D94
S1131F60811D911DA11D20D009F468943F912AE0A0
S1131F70269F11243019305D3193DEF6CF01089588
S1131F80462F4770405D4193B3E00FD0C9F7F6CFB9
S1131F90462F4F70405D4A3318F0495D31FD405281
S1131FA0419302D0A9F7EACFB4E0A6959795879517
S1131FB077956795BA95C9F70097610571050895F6
S1131FC09B01AC010A2E06945795479537952795A2
S1131FD0BA95C9F7620F731F841F951FA01D08953A
S1131FE0052E97FB1EF400940E94071057FD07D09E
S1131FF00E94591007FC03D04EF40C94071050951E
S11320004095309521953F4F4F4F5F4F08959095E0
S11320108095709561957F4F8F4F9F4F08950E94D3
S1132020CB0AA59F900DB49F900DA49F800D911D88
S113203011240895B7FF0C940F100E940F10821BF7
S1132040930B08952F923F924F925F926F927F92DB
S11320508F929F92AF92BF92CF92DF92EF92FF92B4
S11320600F931F93CF93DF93CDB7DEB7CA1BDB0B60
S11320700FB6F894DEBF0FBECDBF09942A88398805
S113208048885F846E847D848C849B84AA84B9840C
S1132090C884DF80EE80FD800C811B81AA81B98118
S11320A0CE0FD11D0FB6F894DEBF0FBECDBFED012C
S11320B00895A1E21A2EAA1BBB1BFD010DC0AA1F85
S11320C0BB1FEE1FFF1FA217B307E407F50720F09D
S11320D0A21BB30BE40BF50B661F771F881F991F18
S11320E01A9469F760957095809590959B01AC0161
S10D20F0BD01CF010895F894FFCF5D
S11320FA00006303200001000000030A0D63616C01
S113210A6962726174696E672067616D6570616482
S113211A2E2E2E2000646F6E652E2043454E5445A4
S113212A52203D205B25642C25645D0A0D000A4D6E
S113213A435032353135206973204E4F5420696E2D
S113214A20636F6E66696775726174696F6E206D5C
S113215A6F646520616674657220726573657421A3
S113216A0A0D00726561642076616C75653A2025F2
S113217A782073686F756C642062653A2025780A42
S113218A0D000A4D43503235313520697320696E8A
S113219A20636F6E66696775726174696F6E206D0C
S11321AA6F64652E2E2E0A0D00434E46313A2025C1
S11321BA780A0D00434E46323A2025780A0D004328
S11321CA4E46333A2025780A0D000A4D43503235DB
S11321DA3135206973204E4F5420696E204445538B
S11321EA4952454420286C6F6F706261636B206F9B
S11321FA72206E6F726D616C290A0D003E200072A6
S113220A6F6F74004E45572047414D45005345545E
S113221A54494E475300782D7900736C2D7372001C
S113222A73722D7800782D780073722D73720054AE
S113223A455354005352414D004F4C4544004065A8
S113224A63686F3A2025630A0D0053455454494E76
S113225A47532073656E642077697468204D4F4430
S113226A453A2025640A0D004C495645533A20251F
S113227A640054494D453A202532643A25326400B3
S113228A256420256420533A2025642025642042AD
S113229A544E3A2025640047414D454F5645520A4B
S11322AA0D0047414D454F564552210043414C4983
S11322BA42524154494F4E2E2E2E00537461727469
S11322CA696E67205352414D20746573742E2E2E05
S11322DA0A0D005352414D207465737420636F6D67
S11322EA706C657465642077697468200A0D2534F6
S11322FA64206572726F727320696E2077726974D2
S113230A6520706861736520616E64200A0D253446
S113231A64206572726F727320696E2072657472BA
S113232A696576616C2070686173650A0D0A0D002F
S10D233A70726F7661202E2E2E00C3
S9030000FC
