S011000070696E672D706F6E672E7372656384
S11300000C9438000C94F2020C9455000C94550096
S11300100C9455000C9455000C9455000C94550008
S11300200C9455000C9455000C9455000C945500F8
S11300300C9455000C9455000C9455000C945500E8
S11300400C9455000C9455000C9455000C94B30278
S11300500C9455000C9455000C9455000C948D028E
S11300600C9455000C9455000C9455000C945500B8
S113007011241FBECFEFD4E0DEBFCDBF13E0A0E05C
S1130080B1E0ECEDF1E102C005900D92A63EB1079E
S1130090D9F723E0A6EEB3E001C01D92A73FB20753
S11300A0E1F70E94ED020C94EC080C94000087B375
S11300B0816087BB81B38F7E81BB82B3806182BB49
S11300C0089510920014089580B382958170089564
S11300D00E9464008823E1F38091001408950F9333
S11300E01F93CF938C01FC01608171817695679594
S11300F0769567957695679581E30E94B901F80135
S113010060816295660F607E82E30E94B901F80106
S1130110628185E30E94B901C0E009C0F801EC0FD7
S1130120F11D638186E38C0F0E94B901CF5FF80152
S11301308281C81798F380E00E94CD01CF911F916E
S11301400F910895FF920F931F93CF93DF938C0128
S11301508BE0F80111928A95E9F782E60E94A701E3
S1130160C82FC295C695C77081E60E94A70190E08A
S1130170880F991F880F991F880F991F8C2BF801DE
S11301809183808385E60E94A701F82EF80182837B
S1130190C0E0D0E009C08C2F8A590E94A701F80161
S11301A0EC0FFD1F838321968F2D90E0C817D9078C
S11301B094F3C801DF91CF911F910F91FF9008959F
S11301C0EF92FF920F931F93CF9386E091E09F935A
S11301D08F930E94F7050F900F90C0E000E010E0AD
S11301E0E12CF12C0BC00E9461000E946800080FF2
S11301F0111D0E946800E80EF11CCF5FC83098F30F
S1130200169507951695079516950795F694E79410
S1130210F694E794F694E7941F930F93FF92EF926A
S113022080E291E09F938F930E94F705E6EEF3E05E
S1130230F182E082138302830F900F900F900F904E
S11302400F900F90CF911F910F91FF90EF90089511
S113025081B38F7D81BB82B3806282BB0E94E00048
S113026008950F931F93CF93DF930E9461000E9420
S11302706800082F10E0C6EED3E08A819B81081B3A
S1130280190B0E946800282F30E00990D881C02DF6
S11302902C1B3D0BC8019695982F88279795879519
S11302A0801B910B101611064CF44091E8035091F9
S11302B0E9036FEF70E0641B750B04C06091E80301
S11302C07091E9030E942704162F472FE62FF72F7A
S11302D0C9019695982F882797958795821B930B2C
S11302E01216130634F42FEF30E0B9016C1B7D0BAA
S11302F0EB01BE010E942704862F972FE238FF4F9F
S113030044F0212F342F203831052CF02FE730E032
S113031002C021E83FEF82389F4F44F0462F572F09
S1130320403851052CF04FE750E002C041E85FEF40
S1130330BA01C901DF91CF911F910F9108950E94D5
S11303406C0280EC0E9453020E945C020895CF93D9
S1130350C82F0E946C0283E00E9453028C2F0E94DB
S113036053020E945702C82F0E945C028C2FCF9127
S11303700895CF93DF93D82FC62F0E946C0282E09A
S11303800E9453028D2F0E9453028C2F0E9453020D
S11303900E945C02DF91CF910895CF93C82F0E94F1
S11303A06C028BEAC89F812D11248695982F990F92
S11303B0890FC81B31F0C13031F0C23031F081E80F
S11303C005C081E803C082E801C084E80E945302AA
S11303D00E945C02CF9108951F93CF93DF93182F4F
S11303E0D62FC42F0E946C0285E00E945302812FF5
S11303F00E9453028D2F0E9453028C2F0E9453029D
S11304000E945C02DF91CF911F910895CF93DF93F7
S1130410D82F0E9460020E949F018EE00E94A701D3
S1130420C82F807E8038D1F089E391E09F938F9329
S11304300E94F7051F9280E88F931F92CF938EE658
S113044091E09F938F930E94F7058DB79EB708960E
S11304500FB6F8949EBF0FBE8DBF22C08DE891E009
S11304609F938F930E94F7056FE38AE20E94B9017C
S113047041E06FEF8BE20E94EC014D2F60EE8FE0C4
S11304800E94EC011F92DF9384EB91E09F938F9382
S11304900E94F7050F900F900F900F900F900F9000
S11304A0DF91CF9108958FB9779BFECF08958AEAA3
S11304B00E9453028FB1089588B3806188BB089568
S11304C087B3806B87BB8DB181658DB98DB1837F17
S11304D08DB90E945C02089588B38F7E88BB08950D
S11304E0F89490BD89B988ED8AB98EE880BD60E042
S11304F070E083EA92E00E9470059093EB0380938E
S1130500EA039093F4038093F303789487B38660AB
S113051087BB88B3866088BB08951F920F920FB67D
S11305200F9211248F939F9398B384E0892788BBFB
S11305309F918F910F900FBE0F901F9018955D9B08
S1130540FECF8CB908950E949F0280E090E0089548
S11305508BB18C7131F498B382E0892788BB8CB15C
S113056008958FEF08951F920F920FB60F921124E2
S11305702F933F934F935F936F937F938F939F93A7
S1130580AF93BF93EF93FF930E94A8028093EC0371
S11305908091EC031F928F9386EC91E09F938F934D
S11305A00E94F7050F900F900F900F90FF91EF911D
S11305B0BF91AF919F918F917F916F915F914F9177
S11305C03F912F910F900FBE0F901F90189585B7F4
S11305D0806885BF80E280BF08950E94160380E092
S11305E090E008951F920F920FB60F9211242F934B
S11305F03F934F935F936F937F938F939F93AF93A7
S1130600BF93EF93FF930E94A603FF91EF91BF91D5
S1130610AF919F918F917F916F915F914F913F9196
S11306202F910F900FBE0F901F901895DF92EF92AD
S1130630FF920F931F93CF93DF93CDB7DEB72B9722
S11306400FB6F894DEBF0FBECDBF8FE190E00E94DD
S1130650700280E00E9406020E94E7020E94570096
S11306600E942801F8948BB780648BBF85B78D7F77
S113067085BF81B38B7F81BB82B3846082BB789456
S11306802FEF8FE791E0215080409040E1F700C0C8
S113069000C08FE992E09F938F930E94F7050E9418
S11306A03101062F182F9F938F931F926894DD2496
S11306B0D1F8DF9288E693E09F938F930E94F70529
S11306C0812F012E000C990B9F938F93802F002E66
S11306D0000C990B9F938F9389E793E09F938F93DB
S11306E00E94F705FE0131967F018BE011928A95F5
S11306F0E9F78BEA90E09A838983DB820C831D837C
S11307008CE20E94A70181701F928F9385E293E08F
S11307109F938F930E94F70589E893E00E940D064A
S1130720C7010E946F000FB6F894DEBF0FBECDBFA5
S11307302B960FB6F894DEBF0FBECDBFDF91CF91DD
S11307401F910F91FF90EF90DF900895EF92FF9229
S11307500F931F93CF93DF93CDB7DEB72B970FB6CD
S1130760F894DEBF0FBECDBF8DE993E09F938F93C6
S11307700E94F7058CE20E94A70181701F928F935B
S113078085E293E09F938F930E94F705CE01019633
S11307900E94A2008B81E82EF12C1F928F938A81F4
S11307A08F9389818F9382EB93E09F938F930E9421
S11307B0F7050FB6F894DEBF0FBECDBF00E010E022
S11307C019C0E4E0F0E0EC0FFD1FE00FF11F8081A1
S11307D0282F082E000C330B3F938F9382EE93E067
S11307E09F938F930E94F7050F5F1F4F0F900F90F9
S11307F00F900F900E151F0524F38AE592E09F9346
S11308008F930E94F70540E061E08CE20E94EC01C6
S11308108CE20E94A70181701F928F9385E293E07E
S11308209F938F930E94F7050F900F900F900F9056
S11308300F900F902B960FB6F894DEBF0FBECDBF6E
S1130840DF91CF911F910F91FF90EF90089597FB47
S1130850072E16F4009407D077FD09D00E943B04BC
S113086007FC05D03EF4909581959F4F08957095AF
S113087061957F4F0895AA1BBB1B51E107C0AA1FB6
S1130880BB1FA617B70710F0A61BB70B881F991F2D
S11308905A95A9F780959095BC01CD0108950F93C1
S11308A01F93CF93DF938230910510F482E090E0A0
S11308B0E091EF03F091F00320E030E0A0E0B0E03D
S11308C0309719F1408151810281138148175907EA
S11308D0C8F08417950769F4109731F012960C93B9
S11308E0129713961C9327C00093EF031093F00301
S11308F022C02115310519F04217530718F49A0143
S1130900BD01EF01DF01F801DBCF21153105F9F05D
S1130910281B390B2430310580F48A819B816115B1
S1130920710521F0FB019383828304C09093F0034B
S11309308093EF03FE01329644C0FE01E20FF31FE1
S11309408193919322503109398328833AC02091AD
S1130950ED033091EE03232B41F4209102013091F9
S113096003013093EE032093ED03209100013091B5
S113097001012115310541F42DB73EB74091040121
S113098050910501241B350BE091ED03F091EE032A
S1130990E217F307A0F42E1B3F0B2817390778F052
S11309A0AC014E5F5F4F2417350748F04E0F5F1FB1
S11309B05093EE034093ED038193919302C0E0E0E2
S11309C0F0E0CF01DF91CF911F910F910895CF9364
S11309D0DF93009709F481C0FC01329713821282DD
S11309E0A091EF03B091F003109781F4208131813D
S11309F0820F931F2091ED033091EE0328173907DE
S1130A0051F5F093EE03E093ED0367C0ED0120E0B0
S1130A1030E0CE17DF0740F44A815B819E01411527
S1130A205105F1F0EA01F5CFD383C28340815181AE
S1130A30840F951FC817D90759F488819981840FA9
S1130A40951F0296918380838A819B8193838283FD
S1130A502115310529F4F093F003E093EF033DC031
S1130A60E901FB83EA8349915991C40FD51FEC171F
S1130A70FD0761F480819181840F951F0296E9013D
S1130A8099838883828193819B838A83E0E0F0E069
S1130A9012968D919C911397009719F0FD01DC013A
S1130AA0F7CF8D919C9111979D012E5F3F4F820F3F
S1130AB0931F2091ED033091EE032817390769F451
S1130AC0309729F41092F0031092EF0302C01382BE
S1130AD01282B093EE03A093ED03DF91CF910895BA
S1130AE00F931F93CF93DF93009731F46115710532
S1130AF019F480E090E03AC08B01EC016EE070E004
S1130B0081E090E00E941E08FC01892B91F380E8AB
S1130B1083830115110571F01387028781E88383AC
S1130B208091F1039091F203892B21F4F093F20365
S1130B30E093F1032097C9F0D187C0878381826055
S1130B4083838091F3039091F403892B71F4F093E0
S1130B50F403E093F3038091F5039091F603892B5A
S1130B6021F4F093F603E093F503CF01DF91CF91E5
S1130B701F910F9108950F931F93CF93DF93FB0160
S1130B80238121FD03C08FEF9FEF2CC022FF16C0ED
S1130B9046815781248135814217530744F4A0814B
S1130BA0B1819D012F5F3F4F318320838C93268138
S1130BB037812F5F3F4F3783268314C08B01EC01AD
S1130BC0FB010084F185E02D0995892BE1F6D8011C
S1130BD016968D919C911797019617969C938E93D8
S1130BE01697CE01DF91CF911F910F910895A0E048
S1130BF0B0E0EDEFF5E00C94C508AE014B5F5F4F3C
S1130C00FA0161917191AF018091F3039091F40322
S1130C100E943D06E2E00C94E1080F931F93CF93EA
S1130C20DF93E091F303F091F403238121FF1BC0D0
S1130C308C01D0E0C0E0F80181918F016091F30351
S1130C407091F403DB011896ED91FC9119978823B8
S1130C5031F00995892B79F3DFEFCFEFECCF8AE000
S1130C600995892B19F08FEF9FEF02C08D2F9C2FD0
S1130C70DF91CF911F910F910895ABE0B0E0E3E4D1
S1130C80F6E00C94B5086C017B018A01FC01178223
S1130C901682838181FFCCC1CE0101963C01F6010D
S1130CA09381F70193FD859193FF81917F018823BF
S1130CB009F4BAC1853239F493FD859193FF81918A
S1130CC07F01853229F4B60190E00E94BB05E7CF8D
S1130CD0912C212C312CFFE1F315D8F08B3279F0D3
S1130CE038F4803279F08332A1F4232D20611DC0C1
S1130CF08D3261F0803369F4232D216016C0832D79
S1130D008260382EE32DE4603E2E2AC0F32DF86075
S1130D101DC037FC2DC020ED280F2A3040F08E3244
S1130D20B9F436FC81C1232D2064322E19C036FE5D
S1130D3006C08AE0989E200D1124922E11C0EAE08C
S1130D402E9E200D1124222EF32DF0623F2E08C07A
S1130D508C3621F4832D8068382E02C0883641F405
S1130D60F70193FD859193FF81917F018111B3CFA9
S1130D70982F9F7D9554933028F40C5F1F4F9FE369
S1130D8099830DC0833631F0833771F0833509F0D0
S1130D9059C021C0F801808189830E5F1F4F8824C8
S1130DA08394912C530113C02801F2E04F0E511C7F
S1130DB0F801A080B18036FE03C0692D70E002C046
S1130DC06FEF7FEFC5010E944C084C018201F32DA7
S1130DD0FF773F2E16C0280122E0420E511CF80175
S1130DE0A080B18036FE03C0692D70E002C06FEFB1
S1130DF07FEFC5010E943A084C01F32DF0683F2EA5
S1130E00820133FC1BC0822D90E088169906B0F451
S1130E10B60180E290E00E94BB052A94F4CFF5016C
S1130E2037FC859137FE81915F01B60190E00E9405
S1130E30BB0521102A9421E0821A9108811491049F
S1130E4071F7E8C0843611F0893641F5F80137FEB0
S1130E5007C060817181828193810C5F1F4F08C03C
S1130E6060817181072E000C880B990B0E5F1F4F58
S1130E70F32DFF763F2E97FF09C0909580957095CE
S1130E8061957F4F8F4F9F4FF0683F2E2AE030E0EF
S1130E90A3010E945708882E861845C0853731F46F
S1130EA0232D2F7EB22E2AE030E025C0932D997F8A
S1130EB0B92E8F36C1F018F4883579F0B5C0803773
S1130EC019F0883721F0B0C0E92FE061BE2EB4FEDE
S1130ED00DC0FB2DF460BF2E09C034FE0AC0292FBB
S1130EE02660B22E06C028E030E005C020E130E0E4
S1130EF002C020E132E0F801B7FE07C060817181D1
S1130F00828193810C5F1F4F06C06081718180E0F4
S1130F1090E00E5F1F4FA3010E945708882E861889
S1130F20FB2DFF773F2E36FE0DC0232D2E7FA22EE4
S1130F30891458F434FE0BC032FC09C0832D8E7E14
S1130F40A82E05C0B82CA32C03C0B82C01C0B92C02
S1130F50A4FE0FC0FE01E80DF11D8081803321F451
S1130F609A2D997EA92E09C0A2FE06C0B394B3940B
S1130F7004C08A2D867809F0B394A3FC11C0A0FEA6
S1130F8006C0B21488F4280C922C9B180EC0B2141C
S1130F9060F4B60180E290E00E94BB05B394F7CF01
S1130FA0B21418F42B1802C0982C212CA4FE10C0E3
S1130FB0B60180E390E00E94BB05A2FE17C0A1FC2D
S1130FC003C088E790E002C088E590E0B6010CC059
S1130FD08A2D867859F0A1FE02C08BE201C080E21E
S1130FE0A7FC8DE2B60190E00E94BB05891438F499
S1130FF0B60180E390E00E94BB059A94F7CF8A94EF
S1131000F301E80DF11D8081B60190E00E94BB055B
S11310108110F5CF222009F442CEB60180E290E09F
S11310200E94BB052A94F6CFF6018681978102C0FF
S11310308FEF9FEF2B96E2E10C94D1080F931F934F
S1131040CF93DF93869F8001879F100D969F100D8D
S11310501124C8010E944F04EC01009729F0A80153
S113106060E070E00E944508CE01DF91CF911F91AE
S11310700F910895FC010590615070400110D8F75C
S1131080809590958E0F9F1F0895DC0101C06D938C
S113109041505040E0F70895FC01615070400190C8
S11310A00110D8F7809590958E0F9F1F0895FA012F
S11310B0AA27283051F1203181F1E8946F936E7F93
S11310C06E5F7F4F8F4F9F4FAF4FB1E03ED0B4E084
S11310D03CD0670F781F891F9A1FA11D680F791FC5
S11310E08A1F911DA11D6A0F711D811D911DA11DD6
S11310F020D009F468943F912AE0269F11243019E6
S1131100305D3193DEF6CF010895462F4770405D80
S11311104193B3E00FD0C9F7F6CF462F4F70405D2F
S11311204A3318F0495D31FD4052419302D0A9F78A
S1131130EACFB4E0A6959795879577956795BA9584
S1131140C9F700976105710508959B01AC010A2E4A
S113115006945795479537952795BA95C9F7620F21
S1131160731F841F951FA01D08952F923F924F92C5
S11311705F926F927F928F929F92AF92BF92CF9223
S1131180DF92EF92FF920F931F93CF93DF93CDB72C
S1131190DEB7CA1BDB0B0FB6F894DEBF0FBECDBFA4
S11311A009942A88398848885F846E847D848C8475
S11311B09B84AA84B984C884DF80EE80FD800C817E
S11311C01B81AA81B981CE0FD11D0FB6F894DEBF61
S10F11D00FBECDBFED010895F894FFCFD1
S11311DC0000F70320000A0D63616C69627261748C
S11311EC696E672067616D657061642E2E2E200018
S11311FC646F6E652E2043454E544552203D205B52
S113120C25642C25645D0A0D000A4D43503235319A
S113121C35206973204E4F5420696E20636F6E66BF
S113122C696775726174696F6E206D6F6465206196
S113123C66746572207265736574210A0D0072659B
S113124C61642076616C75653A2025782073686F2B
S113125C756C642062653A2025780A0D000A4D43AA
S113126C503235313520697320696E20636F6E6698
S113127C696775726174696F6E206D6F64652E2E6B
S113128C2E0A0D0073657420746F204D4F44453A3B
S113129C2025780A0D00406563686F3A2025630A9F
S11312AC0D000A50726F766120747261736D6973EC
S11312BC73696F6E650A0D005374617274696E679D
S11312CC205352414D20746573742E2E2E0A0D003A
S11312DC5352414D207465737420636F6D706C654B
S11312EC7465642077697468200A0D25346420655C
S11312FC72726F727320696E2077726974652070D4
S113130C6861736520616E64200A0D253464206560
S113131C72726F727320696E20726574726965766D
S113132C616C2070686173650A0D0A0D000A4F4CDC
S113133C4544205A4F4E452E2E2E0A0D00616464EE
S113134C725B2534785D203D20253032580A0D001F
S113135C0A414443205A4F4E452E2E2E0A0D000AA4
S113136C5352414D205A4F4E452E2E2E0A0D001B22
S113137C5B324A1B5B4800766572746963616C204E
S113138C25640A0D00686F72697A6F6E7420256487
S113139C0A0D00736C69646572204C2025640A0D77
S11313AC00736C6964657220522025640A0D007800
S11313BC2025640A0D00792025640A0D0044495245
S11313CC3A2025640A0D00736C696465724C2025FF
S11313DC640A0D00736C69646572522025640A0DED
S11313EC0042544E3A2025640A0D0070726F7661E7
S11313FC202E2E2E00696E746572727570742066C0
S113140C6C61673A2025780D0A007265636569760C
S113141C65643A2025780D0A0069732069742043A9
S113142C4C45415245443F3A20696E7420666C61C8
S113143C673A2025780D0A004A4F595F3136743AC1
S113144C2025782025780D0A004A4F595F38743AC4
S113145C2025642025640D0A0073656E64696E672B
S113146C206D6573736167652E2E2E0D00494E54E5
S113147C455252555054206F6E20494E5430210A17
S113148C0D0072656365697665642043414E204D99
S113149C455353414745203D2049443A2025782063
S11314AC4C454E4754483A20256420444154413A13
S10914BC2000256400007D
S9030000FC
