S011000070696E672D706F6E672E7372656384
S11300000C94B4030C94D1030C94D1030C94D10339
S11300100C94D1030C94D1030C94D1030C94D1030C
S11300200C94D1030C94D1030C94D1030C94D103FC
S11300300C94D1030C94D1030C94D1030C94D103EC
S11300400C94D1030C94D1030C94D1030C94BE06EC
S11300500C94D1030C94D1030C94D1030C94980602
S11300600C94D1030C94D1030C94D1030C94D103BC
S1130070FFFFFFFFFFFFFFFFFFFFFFFFFFFFFFFF8C
S1130080FFFFFFFFFFFFFFFFFFFFFFFFFFFFFFFF7C
S1130090000000000000000000000000000000005C
S11300A0000000000000000000000000000000004C
S11300B0000000000000000000000000000000003C
S11300C0000000000000000000000000000000002C
S11300D0FFFFFFFFFFFFFFFFFFFFFFFFFFFFFFFF2C
S11300E0FFFFFFFFFFFFFFFFFFFFFFFFFFFFFFFF1C
S11300F0FFFFFFFFFFFFFFFFFFFFFFFFFFFFFFFF0C
S1130100FFFFFFFFFFFFFFFFFFFFFFFFFFFFFFFFFB
S113011000000000000000000000000000000000DB
S113012000008080808000000000000000000000CB
S113013000000000000000000000808080800000BB
S113014000000000000000000000000000000000AB
S1130150FFFFFFFFFFFFFFFFFFFFFFFFFFFFFFFFAB
S1130160FFFFFFFFFFFFFFFFFFFFFFFFFFFFFFFF9B
S1130170FFFFFFFFFFFFFFFFFFFFFFFFFFFFFFFF8B
S1130180FFFFFFFFFFFFFFFFFFFFFFFFFFFFFFFF7B
S113019000000000000000000080E0F8FCFEFEFF0C
S11301A0FFFF7F7F7F7FFFFFFFFEFEFCFCF8F8F878
S11301B0F8F8F8FCFCFEFEFF3F1F1F1F3FFFFFFF88
S11301C0FFFEFEFCF8E080000000000000000000DC
S11301D0FFFFFFFFFFFFFFFFFFFFFFFFFFFFFFFF2B
S11301E0FFFFFFFFFFFFFFFFFFFFFFFFFFFFFFFF1B
S11301F0FFFFFFFFFFFFFFFFFFFFFFFFFFFFFFFF0B
S1130200FFFFFFFFFFFFFFFFFFFFFFFFFFFFFFFFFA
S1130210000000000000C0F8FFFFFFFFFFFF87871A
S113022087870000000087878787FFFFFFFFFFFFA6
S1130230FFFFFFFFFFFFFFFF3C1818183CFFFFC341
S113024083818383EFFFFFFFF8C0000000000000FC
S1130250FFFFFFFFFFFFFFFFFFFFFFFFFFFFFFFFAA
S1130260FFFFFFFFFFFFFFFFFFFFFFFFFFFFFFFF9A
S1130270FFFFFFFFFFFFFFFFFFFFFFFFFFFFFFFF8A
S1130280FFFFFFFFFFFFFFFFFFFFFFFFFFFFFFFF7A
S11302900000000000F8FFFFFFFFFFFFFFFFFFFF6C
S11302A0FFFFF8F8F8F8FFFFFFFFFFFFFFFFFFFF76
S11302B0FFFFFFFFFFFFFFFFFCF8F8F8FCFFFFFF65
S11302C0FFFFFFFFFFFFFFFFFFFFF800000000003C
S11302D0FFFFFFFFFFFFFFFFFFFFFFFFFFFFFFFF2A
S11302E0FFFFFFFFFFFFFFFFFFFFFFFFFFFFFFFF1A
S11302F0FFFFFFFFFFFFFFFFFFFFFFFFFFFFFFFF0A
S1130300FFFFFFFFFFFFFFFFFFFFFFFFFFFFFFFFF9
S113031000000000000FFFFFFFFFFFFFFFFFFFFFD4
S11303207F3F1F0F070301010101010101010101C9
S11303300101010101010101010103070F1F3F7FB9
S1130340FFFFFFFFFFFFFFFFFFFF0F0000000000A4
S1130350FFFFFFFFFFFFFFFFFFFFFFFFFFFFFFFFA9
S1130360FFFFFFFFFFFFFFFFFFFFFFFFFFFFFFFF99
S1130370FFFFFFFFFFFFFFFFFFFFFFFFFFFFFFFF89
S1130380FFFFFFFFFFFFFFFFFFFFFFFFFFFFFFFF79
S11303900000000000000003030707070303010037
S11303A00000000000000000000000000000000049
S11303B00000000000000000000000000000000039
S11303C00001030307070703030000000000000007
S11303D0FFFFFFFFFFFFFFFFFFFFFFFFFFFFFFFF29
S11303E0FFFFFFFFFFFFFFFFFFFFFFFFFFFFFFFF19
S11303F0FFFFFFFFFFFFFFFFFFFFFFFFFFFFFFFF09
S1130400FFFFFFFFFFFFFFFFFFFFFFFFFFFFFFFFF8
S113041000000000000000000000000000000000D8
S113042000000000000000000000000000000000C8
S113043000000000000000000000000000000000B8
S113044000000000000000000000000000000000A8
S1130450FFFFFFFFFFFFFFFFFFFFFFFFFFFFFFFFA8
S1130460FFFFFFFFFFFFFFFFFFFFFFFFFFFFFFFF98
S1130470000000000000000000065F5F06000000AE
S11304800007070007070000147F7F147F7F140014
S1130490242E6B6B3A120000466630180C6662001C
S11304A0307A4F5D377A48000407030000000000EB
S11304B0001C3E63410000000041633E1C0000003C
S11304C0082A3E1C1C3E2A0808083E3E0808000074
S11304D000A0E06000000000080808080808000008
S11304E000006060000000006030180C060301008A
S11304F03E7F594D7F3E000042427F7F40400000D6
S1130500627359496F660000226349497F360000CF
S1130510181C16137F7F1000276745457D3900009E
S11305203C7E4B4979300000036371190F070000CA
S1130530367F49497F360000064F49693F1E000057
S113054000006C6C0000000000A0EC6C00000000D7
S1130550081C366341000000141414141414000021
S1130560004163361C080000020351590F060000C5
S11305703E7F415D5D1F1E007C7E13137E7C000068
S1130580417F7F49497F36001C3E6341416322001D
S1130590417F7F41637F1C00417F7F495D41630050
S11305A0417F7F491D0103001C3E6341517372006A
S11305B07F7F08087F7F000000417F7F41000000AB
S11305C0307040417F3F0100417F7F081C7763000A
S11305D0417F7F41406070007F7F060C067F7F0073
S11305E07F7F060C187F7F001C3E6341633E1C0026
S11305F0417F7F49090F06001E3F21717F5E000085
S1130600417F7F19396F460026674D597B320000C0
S113061003417F7F410300007F7F40407F7F0000D4
S11306201F3F60603F1F00007F7F3018307F7F00D6
S113063063771C081C776300074F78784F07000026
S11306406773594D47637100007F7F41410000008B
S11306500103060C183060000041417F7F00000058
S1130660080C0603060C080080808080808080804F
S11306700000030704000000207454543C78400038
S1130680413F7F44447C3800387C44446C2800005B
S1130690307848493F7F4000387C54545C1800004F
S11306A0487E7F490302000098BCA4A4F87C04009F
S11306B0417F7F08047C780000447D7D4000000079
S11306C040C484FD7D000000417F7F10386C4400ED
S11306D000417F7F400000007C7C0C180C7C78007B
S11306E07C7C04047C780000387C44447C38000022
S11306F084FCF8A4243C1800183C24A4F8FC8400CE
S1130700447C78441C180000485C54547424000051
S113071000043E7F442400003C7C40403C7C40007C
S11307201C3C60603C1C00003C7C6030607C3C00F5
S1130730446C3810386C44009CBCA0A0FC7C0000C5
S11307404C64745C4C64000008083E77414100002E
S113075000000077770000004141773E0808000060
S1130760020301030203010011241FBECFEFD4E0F2
S1130770DEBFCDBF11E0A0E0B1E0E2E3F8E102C0EA
S113078005900D92AA36B107D9F721E0AAE6B1E0A7
S113079001C01D92A937B207E1F70E94F8060C9434
S11307A0170C0C94000010920014089580B38295E5
S11307B0817008950E94D6038823E1F38091001488
S11307C008950F931F93CF93DF938C01D62F0E942C
S11307D03F06C0E017C060E08C2F0E941A06EC2F81
S11307E0F0E03396EE0FFF1FE00FF11F0190F08150
S11307F0E02D60916A0170916B01808191810E946A
S1130800B808CF5FF801828DC81728F360E78D2FF1
S11308100E941A061F92DF9386E091E09F938F93C4
S11308200E94160920916A0130916B0142E050E068
S113083061E070E08BE091E00E94E2080F900F907D
S11308400F900F90DF91CF911F910F9108958C011C
S11308500E94D8046B017C01C0E02FEF8FE797E082
S1130860215080409040E1F700C000000E943F0604
S11308706C2FC8010E94E103C701B6010E941C0548
S11308800E948505813031F058F1823079F083304F
S113089099F0E3CF2C2F30E0D8015A968C9190E058
S11308A0019728173907CCF6CF5FD7CFF801848199
S11308B095810097B9F4D1CFD8011296ED91FC91AE
S11308C01397309711F00995C8CFD0E02396CC0F39
S11308D0DD1FF801EC0FFD1F00811181C0E0BDCFC9
S11308E0C0E0BBCF8C01C0E0B8CFEF92FF920F9372
S11308F01F93CF93DF93EC017B018A018BE190E09E
S11309000E944C07FC01F182E08213830283D583A9
S1130910C483128E209721F41AC02F5F3F4F02C068
S113092020E030E0F9013396EE0FFF1FEC0FFD1FBE
S113093040815181452B89F7F9013396EE0FFF1F52
S1130940EC0FFD1F918380832A8D2F5F2A8FDF9107
S1130950CF911F910F91FF90EF9008958BE190E05C
S11309600E944C07EC0140E050E06EE071E00E9410
S1130970750440E050E069E171E0CE010E94750425
S11309808C014DEF56E06EE171E00E94750440E089
S113099050E064E271E0C8010E947504CE010E9437
S11309A0270481B38F7D81BB82B3806282BB0895AB
S11309B0EF92FF920F931F93CF938AE291E09F935C
S11309C08F930E9416090F900F90C0E0E12CF12C38
S11309D000E010E00BC00E94D3030E94DA03E80E8B
S11309E0F11C0E94DA03080F111DCF5FC83098F381
S11309F0F694E794F694E794F694E794169507959D
S1130A001695079516950795FF92EF921F930F93EE
S1130A1084E491E09F938F930E941609B801C70163
S1130A200F900F900F900F900F900F90CF911F91F8
S1130A300F91FF90EF900895CF92DF92EF92FF9283
S1130A400F931F93CF93DF936B017C010E94D30319
S1130A500E94DA03C82FD0E08701CE19DF090E9473
S1130A60DA03282F30E0F6012C193D09CE019695C2
S1130A70982F8827979587958C1B9D0B1C161D0610
S1130A8024F40FEF10E00E191F09B8010E94240787
S1130A90162F472FC62FD72FC9019695982F882731
S1130AA097958795821B930B1216130624F4EFEF88
S1130AB0F0E0EC19FD09BF010E942407862F972F4F
S1130AC0C238DF4F44F0212F342F203831052CF069
S1130AD02FE730E002C021E83FEF82389F4F44F017
S1130AE0462F572F403851052CF04FE750E002C0F5
S1130AF041E85FEFBA01C901DF91CF911F910F91D6
S1130B00FF90EF90DF90CF900895AB019B01215CA3
S1130B103F4F2F37310530F49C01215C3F4F2F3775
S1130B203105E8F0FC019C01992324F422273327A2
S1130B30281B390BDB01552324F4AA27BB27A61B4A
S1130B40B70BA217B30734F481E01E161F0654F442
S1130B5080E008951416150624F483E0089584E0D3
S1130B60089582E008958093001008958EEA0E940B
S1130B70B30581EA0E94B3058AED0E94B30582E1C0
S1130B800E94B30588EC0E94B30588EA0E94B3056D
S1130B908FE30E94B30585ED0E94B30580E80E94AF
S1130BA0B30589ED0E94B30581E20E94B3058BED84
S1130BB00E94B30580E30E94B3058DEA0E94B30549
S1130BC080E00E94B30583ED0E94B30580E00E949B
S1130BD0B30580E20E94B30580E00E94B30581E87A
S1130BE00E94B30580E50E94B30586EA0E94B3051E
S1130BF084EA0E94B3058FEA0E94B30560E070E0C6
S1130C0081E696E00E946D0890936B0180936A01DF
S1130C10089580550E94B3050895CF93C82F8F700F
S1130C200E94B3058C2F82958F7080610E94B3055A
S1130C30CF910895CF93C62F0E9409068C2F0E944E
S1130C400D06CF910895809300120895CF9360E02C
S1130C500E941A06C0E004C080E00E942306CF5F11
S1130C60CC23D4F7CF910895CF93C0E004C08C2F48
S1130C700E942606CF5FC830D0F3CF9108950E941A
S1130C80340660E080E00E941A060895CF93DF9353
S1130C90D0EED80FC0E010C0ED2FF0E0EE0FFF1F34
S1130CA0EE0FFF1FEE0FFF1FEC0FF11DE059FB4F7E
S1130CB084910E942306CF5FC83070F3DF91CF91F7
S1130CC008950E94460680E090E00895CF93DF9354
S1130CD00E943F06C0E0D0E007C0FE01E059FF4F8C
S1130CE084910E9423062196C11584E0D807ACF3B1
S1130CF0DF91CF910895F89490BD89B988ED8AB9B0
S1130D008EE880BD60E070E08EEA96E00E946D0897
S1130D1090936D0180936C0190937601809375019B
S1130D20789487B3866087BB88B3866088BB089550
S1130D301F920F920FB60F9211248F939F9398B323
S1130D4084E0892788BB9F918F910F900FBE0F90ED
S1130D501F9018955D9BFECF8CB908950E94AA063A
S1130D6080E090E008958BB18C7131F498B382E007
S1130D70892788BB8CB108958FEF08951F920F9235
S1130D800FB60F9211242F933F934F935F936F935A
S1130D907F938F939F93AF93BF93EF93FF930E949F
S1130DA0B30680936E0180916E011F928F938DE53F
S1130DB091E09F938F930E9416090F900F900F90CC
S1130DC00F90FF91EF91BF91AF919F918F917F9180
S1130DD06F915F914F913F912F910F900FBE0F90A4
S1130DE01F90189585B7806885BF80E280BF0895FD
S1130DF00E94170780E090E008958FE190E00E9440
S1130E007B060E94F2060E94B6050E943F0628E077
S1130E1040E460E080E00E9466062FEF8FEF9DE1E2
S1130E20215080409040E1F700C0000008958FE118
S1130E3090E00E947B060E94F2060E94B6050E9482
S1130E40D1040E94AE04089597FB072E16F4009473
S1130E5007D077FD09D00E94380707FC05D03EF47F
S1130E60909581959F4F0895709561957F4F089552
S1130E70AA1BBB1B51E107C0AA1FBB1FA617B707BC
S1130E8010F0A61BB70B881F991F5A95A9F78095D8
S1130E909095BC01CD0108950F931F93CF93DF93D9
S1130EA08230910510F482E090E0E0917101F091BC
S1130EB0720120E030E0A0E0B0E0309719F1408109
S1130EC051810281138148175907C8F08417950787
S1130ED069F4109731F012960C93129713961C93A1
S1130EE027C0009371011093720122C021153105AE
S1130EF019F04217530718F49A01BD01EF01DF01FD
S1130F00F801DBCF21153105F9F0281B390B24300A
S1130F10310580F48A819B816115710521F0FB0103
S1130F209383828304C09093720180937101FE01C4
S1130F30329644C0FE01E20FF31F81939193225035
S1130F403109398328833AC020916F0130917001AF
S1130F50232B41F42091020130910301309370015D
S1130F6020936F0120910001309101012115310579
S1130F7041F42DB73EB74091040150910501241B63
S1130F80350BE0916F01F0917001E217F307A0F4C3
S1130F902E1B3F0B2817390778F0AC014E5F5F4FCB
S1130FA02417350748F04E0F5F1F5093700140938C
S1130FB06F018193919302C0E0E0F0E0CF01DF91F3
S1130FC0CF911F910F910895CF93DF93009709F468
S1130FD081C0FC01329713821282A0917101B091F9
S1130FE07201109781F420813181820F931F209127
S1130FF06F01309170012817390751F5F093700192
S1131000E0936F0167C0ED0120E030E0CE17DF0709
S113101040F44A815B819E0141155105F1F0EA01DA
S1131020F5CFD383C28340815181840F951FC817A4
S1131030D90759F488819981840F951F0296918369
S113104080838A819B81938382832115310529F4CE
S1131050F0937201E09371013DC0E901FB83EA83DF
S113106049915991C40FD51FEC17FD0761F4808194
S11310709181840F951F0296E90199838883828167
S113108093819B838A83E0E0F0E012968D919C919A
S11310901397009719F0FD01DC01F7CF8D919C9116
S11310A011979D012E5F3F4F820F931F20916F0177
S11310B0309170012817390769F4309729F4109298
S11310C072011092710102C013821282B0937001F6
S11310D0A0936F01DF91CF9108950F931F93CF9346
S11310E0DF93009731F46115710519F480E090E005
S11310F03AC08B01EC016EE070E081E090E00E9468
S11311000D0BFC01892B91F380E8838301151105F4
S113111071F01387028781E8838380917301909132
S11311207401892B21F4F0937401E09373012097E7
S1131130C9F0D187C08783818260838380917501E0
S113114090917601892B71F4F0937601E093750107
S11311508091770190917801892B21F4F0937801A3
S1131160E0937701CF01DF91CF911F910F91089503
S1131170EF92FF920F931F93CF93DF93DB011396AC
S11311802C9121FF18C08B017C01D0E0C0E0F70155
S113119081917F01882361F0D8011896ED91FC912B
S11311A01997B8010995892B91F3DFEFCFEFEFCFB2
S11311B08D2F9C2F02C08FEF9FEFCDB7DEB7E6E0F7
S11311C00C94080CA0E0B0E0E8EEF8E00C94E60B18
S11311D05B014A017901D90113962C9121FF1DC0AD
S11311E0C0E0D0E0C815D905D9F08C016C01CA0C57
S11311F0DB1CC8010C151D0571F00F5F1F4FD701D3
S11312001896ED91FC911997B701DC018C91099521
S1131210892B79F305C02196E5CF80E090E001C0E9
S1131220CE01CDB7DEB7ECE00C94020CA0E0B0E048
S1131230ECE1F9E00C94F00BAE014B5F5F4FFA0167
S113124061917191AF0180917501909176010E9435
S11312502C09E2E00C940C0CABE0B0E0E2E3F9E022
S11312600C94E00B6C017B018A01FC01178216824D
S1131270838181FFCCC1CE0101963C01F6019381AB
S1131280F70193FD859193FF81917F01882309F4F0
S1131290BAC1853239F493FD859193FF81917F0121
S11312A0853229F4B60190E00E94460BE7CF912CD9
S11312B0212C312CFFE1F315D8F08B3279F038F47E
S11312C0803279F08332A1F4232D20611DC08D3248
S11312D061F0803369F4232D216016C0832D826070
S11312E0382EE32DE4603E2E2AC0F32DF8601DC095
S11312F037FC2DC020ED280F2A3040F08E32B9F48F
S113130036FC81C1232D2064322E19C036FE06C05E
S11313108AE0989E200D1124922E11C0EAE02E9EA0
S1131320200D1124222EF32DF0623F2E08C08C369E
S113133021F4832D8068382E02C0883641F4F701E9
S113134093FD859193FF81917F018111B3CF982FF4
S11313509F7D9554933028F40C5F1F4F9FE399832E
S11313600DC0833631F0833771F0833509F059C0ED
S113137021C0F801808189830E5F1F4F88248394E4
S1131380912C530113C02801F2E04F0E511CF801B7
S1131390A080B18036FE03C0692D70E002C06FEFFB
S11313A07FEFC5010E943B0B4C018201F32DFF77B7
S11313B03F2E16C0280122E0420E511CF801A080E5
S11313C0B18036FE03C0692D70E002C06FEF7FEF7D
S11313D0C5010E94290B4C01F32DF0683F2E8201B8
S11313E033FC1BC0822D90E088169906B0F4B60138
S11313F080E290E00E94460B2A94F4CFF50137FC7A
S1131400859137FE81915F01B60190E00E94460B01
S113141021102A9421E0821A91088114910471F711
S1131420E8C0843611F0893641F5F80137FE07C06B
S113143060817181828193810C5F1F4F08C060813C
S11314407181072E000C880B990B0E5F1F4FF32D33
S1131450FF763F2E97FF09C0909580957095619512
S11314607F4F8F4F9F4FF0683F2E2AE030E0A3015B
S11314700E94820B882E861845C0853731F4232DAF
S11314802F7EB22E2AE030E025C0932D997FB92E0D
S11314908F36C1F018F4883579F0B5C0803719F06B
S11314A0883721F0B0C0E92FE061BE2EB4FE0DC034
S11314B0FB2DF460BF2E09C034FE0AC0292F26601C
S11314C0B22E06C028E030E005C020E130E002C0C2
S11314D020E132E0F801B7FE07C0608171818281AA
S11314E093810C5F1F4F06C06081718180E090E0A2
S11314F00E5F1F4FA3010E94820B882E8618FB2DBE
S1131500FF773F2E36FE0DC0232D2E7FA22E891489
S113151058F434FE0BC032FC09C0832D8E7EA82EF5
S113152005C0B82CA32C03C0B82C01C0B92CA4FE50
S11315300FC0FE01E80DF11D8081803321F49A2D46
S1131540997EA92E09C0A2FE06C0B394B39404C028
S11315508A2D867809F0B394A3FC11C0A0FE06C0BE
S1131560B21488F4280C922C9B180EC0B21460F4A8
S1131570B60180E290E00E94460BB394F7CFB21418
S113158018F42B1802C0982C212CA4FE10C0B6010C
S113159080E390E00E94460BA2FE17C0A1FC03C0AA
S11315A088E790E002C088E590E0B6010CC08A2D7F
S11315B0867859F0A1FE02C08BE201C080E2A7FC4C
S11315C08DE2B60190E00E94460B891438F4B6010E
S11315D080E390E00E94460B9A94F7CF8A94F3013B
S11315E0E80DF11D8081B60190E00E94460B811048
S11315F0F5CF222009F442CEB60180E290E00E94A9
S1131600460B2A94F6CFF6018681978102C08FEFAC
S11316109FEF2B96E2E10C94FC0B0F931F93CF9357
S1131620DF93869F8001879F100D969F100D1124D4
S1131630C8010E944C07EC01009729F0A80160E062
S113164070E00E94340BCE01DF91CF911F910F9176
S11316500895FC010590615070400110D8F7809501
S113166090958E0F9F1F0895DC0101C06D9341502A
S11316705040E0F70895FC01615070400190011062
S1131680D8F7809590958E0F9F1F08950F931F9301
S1131690CF93DF93FB01238121FD03C08FEF9FEFE5
S11316A02CC022FF16C04681578124813581421700
S11316B0530744F4A081B1819D012F5F3F4F3183D3
S11316C020838C93268137812F5F3F4F3783268376
S11316D014C08B01EC01FB010084F185E02D099518
S11316E0892BE1F6D80116968D919C911797019656
S11316F017969C938E931697CE01DF91CF911F91ED
S11317000F910895FA01AA27283051F1203181F16F
S1131710E8946F936E7F6E5F7F4F8F4F9F4FAF4FF5
S1131720B1E03ED0B4E03CD0670F781F891F9A1F08
S1131730A11D680F791F8A1F911DA11D6A0F711DBC
S1131740811D911DA11D20D009F468943F912AE0C8
S1131750269F11243019305D3193DEF6CF010895B0
S1131760462F4770405D4193B3E00FD0C9F7F6CFE1
S1131770462F4F70405D4A3318F0495D31FD4052A9
S1131780419302D0A9F7EACFB4E0A695979587953F
S113179077956795BA95C9F700976105710508951E
S11317A09B01AC010A2E06945795479537952795CA
S11317B0BA95C9F7620F731F841F951FA01D089562
S11317C02F923F924F925F926F927F928F929F924D
S11317D0AF92BF92CF92DF92EF92FF920F931F933B
S11317E0CF93DF93CDB7DEB7CA1BDB0B0FB6F894EC
S11317F0DEBF0FBECDBF09942A88398848885F842C
S11318006E847D848C849B84AA84B984C884DF809C
S1131810EE80FD800C811B81AA81B981CE0FD11D80
S11318200FB6F894DEBF0FBECDBFED010895F89456
S1051830FFCFE4
S113183200007901200025750A0D003C2D0048495D
S113184247482053434F524500504C415900504C95
S113185241593100504C415932000A0D63616C699F
S113186262726174696E672067616D657061642E6E
S11318722E2E2000646F6E652E2043454E54455231
S1131882203D205B25642C25645D0A0D00406563C0
S10D1892686F3A2025630A0D000078
S9030000FC
