S011000070696E672D706F6E672E7372656384
S11300000C9438000C9443030C9455000C94550044
S11300100C9455000C9455000C9455000C94550008
S11300200C9455000C9455000C9455000C945500F8
S11300300C9455000C9455000C9455000C945500E8
S11300400C9455000C9455000C9455000C94040326
S11300500C9455000C9455000C9455000C94DE023D
S11300600C9455000C9455000C9455000C945500B8
S113007011241FBECFEFD4E0DEBFCDBF13E0A0E05C
S1130080B1E0E8E4F1E102C005900D92AC3DB107A6
S1130090D9F723E0ACEDB3E001C01D92AD3EB20749
S11300A0E1F70E943E030C94A2080C94000087B36D
S11300B0816087BB81B38F7E81BB82B3806182BB49
S11300C0089510920014089580B382958170089564
S11300D00E9464008823E1F38091001408950F9333
S11300E01F93CF938C01FC01608171817695679594
S11300F0769567957695679581E30E94B901F80135
S113010060816295660F607E82E30E94B901F80106
S1130110628185E30E94B901C0E009C0F801EC0FD7
S1130120F11D638186E38C0F0E94B901CF5FF80152
S11301308281C81798F380E00E94CD01CF911F916E
S11301400F910895FF920F931F93CF93DF938C0128
S11301508BE0F80111928A95E9F782E60E94A701E3
S1130160C82FC295C695C77081E60E94A70190E08A
S1130170880F991F880F991F880F991F8C2BF801DE
S11301809183808385E60E94A701F82EF80182837B
S1130190C0E0D0E009C08C2F8A590E94A701F80161
S11301A0EC0FFD1F838321968F2D90E0C817D9078C
S11301B094F3C801DF91CF911F910F91FF9008959F
S11301C0EF92FF920F931F93CF9386E091E09F935A
S11301D08F930E94DD050F900F90C0E000E010E0C7
S11301E0E12CF12C0BC00E9461000E946800080FF2
S11301F0111D0E946800E80EF11CCF5FC83098F30F
S1130200169507951695079516950795F694E79410
S1130210F694E794F694E7941F930F93FF92EF926A
S113022080E291E09F938F930E94DD05ECEDF3E073
S1130230F182E082138302830F900F900F900F904E
S11302400F900F90CF911F910F91FF90EF90089511
S113025081B38F7D81BB82B3806282BB0E94E00048
S113026008950F931F93CF93DF930E9461000E9420
S11302706800082F10E0CCEDD3E08A819B81081B35
S1130280190B0E946800282F30E00990D881C02DF6
S11302902C1B3D0BC8019695982F88279795879519
S11302A0801B910B101611064CF44091DE03509103
S11302B0DF036FEF70E0641B750B04C06091DE0315
S11302C07091DF030E940D04162F472FE62FF72F9E
S11302D0C9019695982F882797958795821B930B2C
S11302E01216130634F42FEF30E0B9016C1B7D0BAA
S11302F0EB01BE010E940D04862F972FE238FF4FB9
S113030044F0212F342F203831052CF02FE730E032
S113031002C021E83FEF82389F4F44F0462F572F09
S1130320403851052CF04FE750E002C041E85FEF40
S1130330BA01C901DF91CF911F910F9108950E94D5
S1130340BD0280EC0E94A4020E94AD020895CF93E6
S1130350C82F0E94BD0283E00E94A4028C2F0E9439
S1130360A4020E94A802C82F0E94AD028C2FCF9134
S11303700895CF93DF93D82FC62F0E94BD0282E049
S11303800E94A4028D2F0E94A4028C2F0E94A4021A
S11303900E94AD02DF91CF910895CF93C82F0E94A0
S11303A0BD028BEAC89F812D11248695982F990F41
S11303B0890FC81B31F0C13031F0C23031F081E80F
S11303C005C081E803C082E801C084E80E94A40259
S11303D00E94AD02CF9108951F93CF93DF93182FFE
S11303E0D62FC42F0E94BD0285E00E94A402812F53
S11303F00E94A4028D2F0E94A4028C2F0E94A402AA
S11304000E94AD02DF91CF911F910895CF93DF93A6
S1130410D82F0E94B1020E949F018FEF9FE20197A3
S1130420F1F700C000008EE00E94A701C82F807E73
S11304308038D9F089E391E09F938F930E94DD0582
S11304401F9280E88F931F92CF938EE691E09F9343
S11304508F930E94DD052DB73EB7285F3F4F0FB63F
S1130460F8943EBF0FBE2DBF6CC08DE891E09F9302
S11304708F930E94DD0563EC8AE20E94B90161EB6F
S113048089E20E94B90165E088E20E94B9018AE22A
S11304900E94A7011F928F9384EB91E09F938F9307
S11304A00E94DD0589E20E94A7011F928F938FEBC2
S11304B091E09F938F930E94DD0588E20E94A7013B
S11304C01F928F938AEC91E09F938F930E94DD0596
S11304D041E06FEF8BE20E94EC014D2F60EE8FE064
S11304E00E94EC018EE00E94A701C82F807E2DB7E8
S11304F03EB7225F3F4F0FB6F8943EBF0FBE2DBFED
S11305008D17C9F085ED91E09F938F930E94DD05CF
S11305101F92DF931F92CF938EE691E09F938F9368
S11305200E94DD058DB79EB708960FB6F8949EBF5E
S11305300FBE8DBF06C08FEF9FE20197F1F700C099
S11305400000DF91CF9108958FB9779BFECF089576
S11305508AEA0E94A4028FB1089588B3806188BB9F
S1130560089587B3806B87BB8DB181658DB98DB1DB
S1130570837F8DB90E94AD02089588B38F7E88BBB6
S11305800895F89490BD89B988ED8AB98EE880BD44
S113059060E070E084EF92E00E9456059093E103DE
S11305A08093E0039093EA038093E903789487B3FC
S11305B0866087BB88B3866088BB08951F920F92BC
S11305C00FB60F9211248F939F9398B384E08927D9
S11305D088BB9F918F910F900FBE0F901F9018951D
S11305E05D9BFECF8CB908950E94F00280E090E0FC
S11305F008958BB18C7131F498B382E0892788BB5C
S11306008CB108958FEF08951F920F920FB60F9239
S113061011242F933F934F935F936F937F938F9303
S11306209F93AF93BF93EF93FF930E94F90280933C
S1130630E2038091E2031F928F9387E092E09F93FD
S11306408F930E94DD050F900F900F900F90FF91F4
S1130650EF91BF91AF919F918F917F916F915F9136
S11306604F913F912F910F900FBE0F901F901895AF
S113067085B7806885BF80E280BF08950E946703C4
S113068080E090E008951F920F920FB60F9211240C
S11306902F933F934F935F936F937F938F939F9386
S11306A0AF93BF93EF93FF930E94AB03FF91EF913E
S11306B0BF91AF919F918F917F916F915F914F9176
S11306C03F912F910F900FBE0F901F901895CF93CD
S11306D0DF93CDB7DEB72B970FB6F894DEBF0FBE0E
S11306E0CDBF8FE190E00E94C1020E9438030E94B6
S11306F057000E94280180E00E940602F8948BB7FC
S113070080648BBF85B78D7F85BF81B38B7F81BBB1
S113071082B3846082BB78948FEF9FE20197F1F7F4
S113072000C000000E9431018E010F5F1F4F9BE04B
S1130730F80111929A95E9F72AEA30E03A8329837D
S113074092E09B836C838D838CE20E94A701C80195
S11307500E946F00E1CFEF92FF920F931F93CF930C
S1130760DF93CDB7DEB72B970FB6F894DEBF0FBE7D
S1130770CDBF8CE20E94A701CE0101960E94A20087
S11307808B81E82EF12C1F928F938A818F9389811C
S11307908F9389EA93E09F938F930E94DD050F90D6
S11307A00F900F900F900F900F9000E010E015C085
S11307B0E4E0F0E0EC0FFD1FE00FF11F80811F92D9
S11307C08F9389ED93E09F938F930E94DD050F5FD4
S11307D01F4F0F900F900F900F900E151F0544F3AD
S11307E08BE992E09F938F930E94DD0540E061E0E6
S11307F08CE20E94EC018CE20E94A7010F900F9002
S11308002B960FB6F894DEBF0FBECDBFDF91CF910C
S11308101F910F91FF90EF90089597FB072E16F408
S1130820009407D077FD09D00E94210407FC05D06D
S11308303EF4909581959F4F0895709561957F4FF3
S11308400895AA1BBB1B51E107C0AA1FBB1FA61713
S1130850B70710F0A61BB70B881F991F5A95A9F765
S113086080959095BC01CD0108950F931F93CF936C
S1130870DF938230910510F482E090E0E091E5038B
S1130880F091E60320E030E0A0E0B0E0309719F109
S1130890408151810281138148175907C8F0841798
S11308A0950769F4109731F012960C9312971396EA
S11308B01C9327C00093E5031093E60322C021157F
S11308C0310519F04217530718F49A01BD01EF01DD
S11308D0DF01F801DBCF21153105F9F0281B390BB5
S11308E02430310580F48A819B816115710521F0E2
S11308F0FB019383828304C09093E6038093E50312
S1130900FE01329644C0FE01E20FF31F81939193DE
S113091022503109398328833AC02091E30330916E
S1130920E403232B41F4209102013091030130931D
S1130930E4032093E3032091000130910101211588
S1130940310541F42DB73EB74091040150910501A2
S1130950241B350BE091E303F091E403E217F30762
S1130960A0F42E1B3F0B2817390778F0AC014E5F1B
S11309705F4F2417350748F04E0F5F1F5093E40371
S11309804093E3038193919302C0E0E0F0E0CF0150
S1130990DF91CF911F910F910895CF93DF9300972B
S11309A009F481C0FC01329713821282A091E503FD
S11309B0B091E603109781F420813181820F931F57
S11309C02091E3033091E4032817390751F5F0939C
S11309D0E403E093E30367C0ED0120E030E0CE17C9
S11309E0DF0740F44A815B819E0141155105F1F016
S11309F0EA01F5CFD383C28340815181840F951FCF
S1130A00C817D90759F488819981840F951F0296D4
S1130A10918380838A819B8193838283211531050D
S1130A2029F4F093E603E093E5033DC0E901FB8379
S1130A30EA8349915991C40FD51FEC17FD0761F45E
S1130A4080819181840F951F0296E901998388839F
S1130A50828193819B838A83E0E0F0E012968D91FA
S1130A609C911397009719F0FD01DC01F7CF8D914C
S1130A709C9111979D012E5F3F4F820F931F2091F0
S1130A80E3033091E4032817390769F4309729F414
S1130A901092E6031092E50302C013821282B0930F
S1130AA0E403A093E303DF91CF9108950F931F9381
S1130AB0CF93DF93009731F46115710519F480E049
S1130AC090E03AC08B01EC016EE070E081E090E0D0
S1130AD00E94D407FC01892B91F380E883830115DC
S1130AE0110571F01387028781E883838091E703FE
S1130AF09091E803892B21F4F093E803E093E70352
S1130B002097C9F0D187C0878381826083838091D5
S1130B10E9039091EA03892B71F4F093EA03E093DB
S1130B20E9038091EB039091EC03892B21F4F0937A
S1130B30EC03E093EB03CF01DF91CF911F910F9171
S1130B4008950F931F93CF93DF93FB01238121FD1E
S1130B5003C08FEF9FEF2CC022FF16C04681578140
S1130B60248135814217530744F4A081B1819D014A
S1130B702F5F3F4F318320838C93268137812F5FF2
S1130B803F4F3783268314C08B01EC01FB010084A3
S1130B90F185E02D0995892BE1F6D80116968D9102
S1130BA09C911797019617969C938E931697CE0156
S1130BB0DF91CF911F910F910895A0E0B0E0E3EE93
S1130BC0F5E00C947B08AE014B5F5F4FFA01619135
S1130BD07191AF018091E9039091EA030E94F305BA
S1130BE0E2E00C949708ABE0B0E0E9EFF5E00C9498
S1130BF06B086C017B018A01FC01178216828381D8
S1130C0081FFCCC1CE0101963C01F6019381F7012D
S1130C1093FD859193FF81917F01882309F4BAC1E3
S1130C20853239F493FD859193FF81917F0185325B
S1130C3029F4B60190E00E94A105E7CF912C212C64
S1130C40312CFFE1F315D8F08B3279F038F480328F
S1130C5079F08332A1F4232D20611DC08D3261F01F
S1130C60803369F4232D216016C0832D8260382ED1
S1130C70E32DE4603E2E2AC0F32DF8601DC037FC3E
S1130C802DC020ED280F2A3040F08E32B9F436FC06
S1130C9081C1232D2064322E19C036FE06C08AE09D
S1130CA0989E200D1124922E11C0EAE02E9E200D54
S1130CB01124222EF32DF0623F2E08C08C3621F42D
S1130CC0832D8068382E02C0883641F4F70193FDE5
S1130CD0859193FF81917F018111B3CF982F9F7DDF
S1130CE09554933028F40C5F1F4F9FE399830DC0F4
S1130CF0833631F0833771F0833509F059C021C050
S1130D00F801808189830E5F1F4F88248394912C7E
S1130D10530113C02801F2E04F0E511CF801A080CA
S1130D20B18036FE03C0692D70E002C06FEF7FEF23
S1130D30C5010E9402084C018201F32DFF773F2E6A
S1130D4016C0280122E0420E511CF801A080B18097
S1130D5036FE03C0692D70E002C06FEF7FEFC5015E
S1130D600E94F0074C01F32DF0683F2E820133FC02
S1130D701BC0822D90E088169906B0F4B60180E27B
S1130D8090E00E94A1052A94F4CFF50137FC8591E7
S1130D9037FE81915F01B60190E00E94A105211008
S1130DA02A9421E0821A91088114910471F7E8C011
S1130DB0843611F0893641F5F80137FE07C06081A9
S1130DC07181828193810C5F1F4F08C060817181A2
S1130DD0072E000C880B990B0E5F1F4FF32DFF7627
S1130DE03F2E97FF09C090958095709561957F4F30
S1130DF08F4F9F4FF0683F2E2AE030E0A3010E94FE
S1130E000D08882E861845C0853731F4232D2F7E92
S1130E10B22E2AE030E025C0932D997FB92E8F366B
S1130E20C1F018F4883579F0B5C0803719F08837E7
S1130E3021F0B0C0E92FE061BE2EB4FE0DC0FB2D41
S1130E40F460BF2E09C034FE0AC0292F2660B22EDA
S1130E5006C028E030E005C020E130E002C020E117
S1130E6032E0F801B7FE07C060817181828193810D
S1130E700C5F1F4F06C06081718180E090E00E5FBF
S1130E801F4FA3010E940D08882E8618FB2DFF77A3
S1130E903F2E36FE0DC0232D2E7FA22E891458F42A
S1130EA034FE0BC032FC09C0832D8E7EA82E05C0F3
S1130EB0B82CA32C03C0B82C01C0B92CA4FE0FC0BD
S1130EC0FE01E80DF11D8081803321F49A2D997E75
S1130ED0A92E09C0A2FE06C0B394B39404C08A2DFF
S1130EE0867809F0B394A3FC11C0A0FE06C0B21426
S1130EF088F4280C922C9B180EC0B21460F4B6012E
S1130F0080E290E00E94A105B394F7CFB21418F4E4
S1130F102B1802C0982C212CA4FE10C0B60180E32B
S1130F2090E00E94A105A2FE17C0A1FC03C088E7BF
S1130F3090E002C088E590E0B6010CC08A2D867866
S1130F4059F0A1FE02C08BE201C080E2A7FC8DE251
S1130F50B60190E00E94A105891438F4B60180E33B
S1130F6090E00E94A1059A94F7CF8A94F301E80DCA
S1130F70F11D8081B60190E00E94A1058110F5CF9A
S1130F80222009F442CEB60180E290E00E94A1053D
S1130F902A94F6CFF6018681978102C08FEF9FEFE6
S1130FA02B96E2E10C9487080F931F93CF93DF9362
S1130FB0869F8001879F100D969F100D1124C801F4
S1130FC00E943504EC01009729F0A80160E070E06C
S1130FD00E94FB07CE01DF91CF911F910F910895DD
S1130FE0FC010590615070400110D8F780959095F0
S1130FF08E0F9F1F0895DC0101C06D934150504036
S1131000E0F70895FC016150704001900110D8F799
S1131010809590958E0F9F1F0895FA01AA27283076
S113102051F1203181F1E8946F936E7F6E5F7F4FB1
S11310308F4F9F4FAF4FB1E03ED0B4E03CD0670F2D
S1131040781F891F9A1FA11D680F791F8A1F911D80
S1131050A11D6A0F711D811D911DA11D20D009F4D0
S113106068943F912AE0269F11243019305D319312
S1131070DEF6CF010895462F4770405D4193B3E0FB
S11310800FD0C9F7F6CF462F4F70405D4A3318F0A2
S1131090495D31FD4052419302D0A9F7EACFB4E053
S11310A0A6959795879577956795BA95C9F700970B
S11310B06105710508959B01AC010A2E06945795AC
S11310C0479537952795BA95C9F7620F731F841F03
S11310D0951FA01D08952F923F924F925F926F9299
S11310E07F928F929F92AF92BF92CF92DF92EF92B4
S11310F0FF920F931F93CF93DF93CDB7DEB7CA1B35
S1131100DB0B0FB6F894DEBF0FBECDBF09942A885F
S1131110398848885F846E847D848C849B84AA8407
S1131120B984C884DF80EE80FD800C811B81AA8194
S1131130B981CE0FD11D0FB6F894DEBF0FBECDBF5F
S10B1140ED010895F894FFCFBE
S11311480000ED0320000A0D63616C69627261742A
S1131158696E672067616D657061642E2E2E2000AC
S1131168646F6E652E2043454E544552203D205BE6
S113117825642C25645D0A0D000A4D43503235312F
S113118835206973204E4F5420696E20636F6E6654
S1131198696775726174696F6E206D6F646520612B
S11311A866746572207265736574210A0D00726530
S11311B861642076616C75653A2025782073686FC0
S11311C8756C642062653A2025780A0D000A4D433F
S11311D8503235313520697320696E20636F6E662D
S11311E8696775726174696F6E206D6F64652E2E00
S11311F82E0A0D00434E46313A2025780A0D004345
S11312084E46323A2025780A0D00434E46333A209A
S113121825780A0D000A4D4350323531352069735B
S1131228204E4F5420696E2044455349524544206A
S1131238286C6F6F706261636B206F72206E6F72BF
S11312486D616C290A0D00406563686F3A20256357
S11312580A0D000A50726F766120747261736D69A9
S11312687373696F6E650A0D005374617274696EE5
S113127867205352414D20746573742E2E2E0A0D27
S1131288005352414D207465737420636F6D706C04
S1131298657465642077697468200A0D25346420B0
S11312A86572726F727320696E2077726974652033
S11312B8706861736520616E64200A0D25346420AA
S11312C86572726F727320696E20726574726965D3
S11312D876616C2070686173650A0D0A0D000A4F07
S11312E84C4544205A4F4E452E2E2E0A0D0061645B
S11312F864725B2534785D203D20253032580A0D10
S1131308000A414443205A4F4E452E2E2E0A0D0002
S11313180A5352414D205A4F4E452E2E2E0A0D0087
S11313281B5B324A1B5B4800766572746963616CA7
S11313382025640A0D00686F72697A6F6E7420251F
S1131348640A0D00736C69646572204C2025640A74
S11313580D00736C6964657220522025640A0D00BF
S1131368782025640A0D00792025640A0D00444973
S1131378523A2025640A0D00736C696465724C2026
S113138825640A0D00736C69646572522025640A29
S11313980D0042544E3A2025640A0D0070726F768F
S11313A861202E2E2E00696E746572727570742019
S11313B8666C61673A2025780D0A00726563656971
S11313C87665643A2025780D0A00697320697420CB
S11313D8434C45415245443F3A20696E7420666C3B
S11313E861673A2025780D0A007265636569766538
S11313F8642043414E204D455353414745203D20E9
S113140849443A202578204C454E4754483A2025EB
S10F14186420444154413A200025640043
S9030000FC
