S011000070696E672D706F6E672E7372656384
S11300000C9438000C9455000C9455000C94550035
S11300100C9455000C9455000C9455000C94550008
S11300200C9455000C9455000C9455000C945500F8
S11300300C9455000C9455000C9455000C945500E8
S11300400C9455000C9455000C9455000C949A0093
S11300500C9455000C9455000C9455000C947D00A0
S11300600C9455000C9455000C9455000C945500B8
S113007011241FBECFEFD4E0DEBFCDBF11E0A0E05E
S1130080B1E0EEEBF1E002C005900D92A831B107AA
S1130090D9F721E0A8E1B1E001C01D92A931B2076E
S11300A0E1F70E94C0000C94DD000C940000F89469
S11300B090BD89B988E18AB98AB1806C8AB980E82F
S11300C080BD80B58E6280BD789487B3866087BB1F
S11300D088B3866088BB08955D9BFECF8CB9089574
S11300E0CF93DF93EC0103C021960E946C008881BA
S11300F08111FACFDF91CF9108951F920F920FB61D
S11301000F9211248F939F9398B382E0892788BB21
S11301109F918F910F900FBE0F901F9018958BB1E8
S11301208C7131F498B384E0892788BB8CB108952D
S11301308FEF08951F920F920FB60F9211242F93F1
S11301403F934F935F936F937F938F939F93AF935B
S1130150BF93EF93FF930E948F0080931801FF9148
S1130160EF91BF91AF919F918F917F916F915F912B
S11301704F913F912F910F900FBE0F901F901895A4
S11301800E94C50080E090E008958FE190E00E9415
S1130190570080E091E00E94700080E0C1E0C80F49
S11301A00E946C002FEF8FE797E021508040904031
S11101B0E1F700C000008C2FF1CFF894FFCFD0
S11301BE50726F766120747261736D697373696FB7
S10B01CE6E652E2E2E0A0000BE
S9030000FC
