:100000000C9438000C9455000C9455000C94550039
:100010000C9455000C9455000C9455000C9455000C
:100020000C9455000C9455000C9455000C945500FC
:100030000C9455000C9455000C9455000C945500EC
:100040000C9455000C9455000C9455000C9491019F
:100050000C9455000C9455000C9455000C946B01B5
:100060000C9455000C9455000C9455000C945500BC
:1000700011241FBECFEFD4E0DEBFCDBF11E0A0E062
:10008000B1E0E0E9FDE002C005900D92AE37B107A6
:10009000D9F721E0AEE7B1E001C01D92A938B2075F
:1000A000E1F70E94CB010C94C6060C94000087B3C4
:1000B000816087BB81B38F7E81BB82B3806182BB4D
:1000C000089510920014089580B382958170089568
:1000D0000E9464008823E1F3809100140895EF9258
:1000E000FF920F931F93CF9386E091E09F938F939E
:1000F0000E94A40284E291E09F938F930E94A40245
:100100000F900F900F900F90C0E0E12CF12C00E0C9
:1001100010E00BC00E9461000E946800E80EF11C14
:100120000E946800080F111DCF5FC03198F3F6944C
:10013000E794F694E794F694E794F694E79412958E
:1001400002950F7001271F700127FF92EF921F93F6
:100150000F938EE291E09F938F930E94A402B801C7
:10016000C7010F900F900F900F900F900F90CF91AD
:100170001F910F91FF90EF900895CF92DF92EF9231
:10018000FF92CF93DF936B017C010E9461000E947C
:100190006800282F30E0B7012E193F0972F044E6BD
:1001A000429FC001439F900D11246FEF70E06E19C4
:1001B0007F090E943102EB0109C044E6429FC00161
:1001C000439F900D11240E943102EB010E946800B0
:1001D000282F30E0B6012C193D0972F044E6429F09
:1001E000C001439F900D11246FEF70E06C197D09E1
:1001F0000E9431029B0109C044E6429FC001439F17
:10020000900D11240E9431029B01B901CE01DF91B2
:10021000CF91FF90EF90DF90CF900895AB019B01BD
:100220002E5C3F4F2536310530F49C012E5C3F4F4C
:1002300025363105E0F0FC019C01992324F42227A6
:100240003327281B390BDB01552324F4AA27BB27AE
:10025000A61BB70BA217B3072CF41E161F064CF4EF
:1002600080E008951416150634F483E0089584E0C0
:10027000089581E0089582E00895CF93DF930E946E
:1002800061000E9468000E9468000E946800C82FF8
:10029000D0E00E946800282FBE01822F90E0DF91FD
:1002A000CF910895F89490BD89B988ED8AB98EE808
:1002B00080BD60E070E081E891E00E945902909377
:1002C000820180938101789487B3866087BB88B36D
:1002D000866088BB08951F920F920FB60F9211246B
:1002E0008F939F9398B384E0892788BB9F918F91C8
:1002F0000F900FBE0F901F9018955D9BFECF8CB98D
:1003000008950E947D0180E090E008958BB18C718A
:1003100031F498B382E0892788BB8CB108958FEFC0
:1003200008951F920F920FB60F9211242F933F93AF
:100330004F935F936F937F938F939F93AF93BF93ED
:10034000EF93FF930E94860180937E0180917E014E
:100350001F928F9388E391E09F938F930E94A40252
:100360000F900F900F900F90FF91EF91BF91AF9171
:100370009F918F917F916F915F914F913F912F91BD
:100380000F900FBE0F901F90189585B7806885BF9E
:1003900080E280BF08958FE190E00E9452010E94A8
:1003A000C5010E9457000E946F006B017C012FEF76
:1003B0008FEF9EE0215080409040E1F700C00000A8
:1003C000C701B6010E94BD00162F072FC82FD92FD5
:1003D0000E940E01782E0E943D01962E872EB82E87
:1003E000A92E84E491E09F938F930E94A4020F931F
:1003F0001F938CE491E09F938F930E94A402DF935C
:10040000CF9383E591E09F938F930E94A4021F9264
:100410007F928AE591E09F938F930E94A4028F922E
:100420009F9284E691E09F938F930E94A402AF92E3
:10043000BF9281E791E09F938F930E94A4022FEFD8
:100440008FE791E0215080409040E1F700C000C06C
:100450008DB79EB746960FB6F8949EBF0FBE8DBF60
:10046000AFCF97FB072E16F4009407D077FD09D085
:100470000E94450207FC05D03EF4909581959F4F60
:100480000895709561957F4F0895AA1BBB1B51E19C
:1004900007C0AA1FBB1FA617B70710F0A61BB70BF4
:1004A000881F991F5A95A9F780959095BC01CD0199
:1004B00008950F931F93CF93DF93009731F4611545
:1004C000710519F480E090E03AC08B01EC016EE018
:1004D00070E081E090E00E949B04FC01892B91F385
:1004E00080E883830115110571F01387028781E885
:1004F000838380917F0190918001892B21F4F09377
:100500008001E0937F012097C9F0D187C087838164
:10051000826083838091810190918201892B71F4A3
:10052000F0938201E0938101809183019091840195
:10053000892B21F4F0938401E0938301CF01DF91B3
:10054000CF911F910F910895A0E0B0E0EAEAF2E0A8
:100550000C949F06AE014B5F5F4FFA016191719160
:10056000AF0180918101909182010E94BA02E2E084
:100570000C94BB06ABE0B0E0E0ECF2E00C948F062C
:100580006C017B018A01FC0117821682838181FF45
:10059000CCC1CE0101963C01F6019381F70193FD98
:1005A000859193FF81917F01882309F4BAC1853237
:1005B00039F493FD859193FF81917F01853229F470
:1005C000B60190E00E94F505E7CF912C212C312C4B
:1005D000FFE1F315D8F08B3279F038F4803279F0FE
:1005E0008332A1F4232D20611DC08D3261F0803350
:1005F00069F4232D216016C0832D8260382EE32DEF
:10060000E4603E2E2AC0F32DF8601DC037FC2DC0DB
:1006100020ED280F2A3040F08E32B9F436FC81C12B
:10062000232D2064322E19C036FE06C08AE0989E23
:10063000200D1124922E11C0EAE02E9E200D1124CF
:10064000222EF32DF0623F2E08C08C3621F4832D2C
:100650008068382E02C0883641F4F70193FD8591F9
:1006600093FF81917F018111B3CF982F9F7D955486
:10067000933028F40C5F1F4F9FE399830DC083369E
:1006800031F0833771F0833509F059C021C0F8018A
:10069000808189830E5F1F4F88248394912C53019E
:1006A00013C02801F2E04F0E511CF801A080B18068
:1006B00036FE03C0692D70E002C06FEF7FEFC50109
:1006C0000E94EA054C018201F32DFF773F2E16C0F0
:1006D000280122E0420E511CF801A080B18036FEB4
:1006E00003C0692D70E002C06FEF7FEFC5010E946B
:1006F000D8054C01F32DF0683F2E820133FC1BC05E
:10070000822D90E088169906B0F4B60180E290E060
:100710000E94F5052A94F4CFF50137FC859137FE48
:1007200081915F01B60190E00E94F50521102A94A5
:1007300021E0821A91088114910471F7E8C084368F
:1007400011F0893641F5F80137FE07C060817181EB
:10075000828193810C5F1F4F08C060817181072ED9
:10076000000C880B990B0E5F1F4FF32DFF763F2E69
:1007700097FF09C090958095709561957F4F8F4F39
:100780009F4FF0683F2E2AE030E0A3010E9431061F
:10079000882E861845C0853731F4232D2F7EB22E42
:1007A0002AE030E025C0932D997FB92E8F36C1F015
:1007B00018F4883579F0B5C0803719F0883721F002
:1007C000B0C0E92FE061BE2EB4FE0DC0FB2DF46079
:1007D000BF2E09C034FE0AC0292F2660B22E06C0E3
:1007E00028E030E005C020E130E002C020E132E046
:1007F000F801B7FE07C060817181828193810C5F2F
:100800001F4F06C06081718180E090E00E5F1F4F36
:10081000A3010E943106882E8618FB2DFF773F2EFC
:1008200036FE0DC0232D2E7FA22E891458F434FEDF
:100830000BC032FC09C0832D8E7EA82E05C0B82CBB
:10084000A32C03C0B82C01C0B92CA4FE0FC0FE011C
:10085000E80DF11D8081803321F49A2D997EA92E17
:1008600009C0A2FE06C0B394B39404C08A2D867852
:1008700009F0B394A3FC11C0A0FE06C0B21488F422
:10088000280C922C9B180EC0B21460F4B60180E2C2
:1008900090E00E94F505B394F7CFB21418F42B182A
:1008A00002C0982C212CA4FE10C0B60180E390E079
:1008B0000E94F505A2FE17C0A1FC03C088E790E0E6
:1008C00002C088E590E0B6010CC08A2D867859F008
:1008D000A1FE02C08BE201C080E2A7FC8DE2B6015E
:1008E00090E00E94F505891438F4B60180E390E0A9
:1008F0000E94F5059A94F7CF8A94F301E80DF11D53
:100900008081B60190E00E94F5058110F5CF22208C
:1009100009F442CEB60180E290E00E94F5052A94E7
:10092000F6CFF6018681978102C08FEF9FEF2B965D
:10093000E2E10C94AB060F931F93CF93DF93869F56
:100940008001879F100D969F100D1124C8010E94F1
:10095000B704EC01009729F0A80160E070E00E9464
:10096000E305CE01DF91CF911F910F9108950F9371
:100970001F93CF93DF938230910510F482E090E0D3
:10098000E0918701F091880120E030E0A0E0B0E044
:10099000309719F14081518102811381481759071D
:1009A000C8F08417950769F4109731F012960C93EC
:1009B000129713961C9327C0009387011093880108
:1009C00022C02115310519F04217530718F49A0176
:1009D000BD01EF01DF01F801DBCF21153105F9F091
:1009E000281B390B2430310580F48A819B816115E5
:1009F000710521F0FB019383828304C090938801E9
:100A000080938701FE01329644C0FE01E20FF31F7E
:100A10008193919322503109398328833AC02091E0
:100A2000850130918601232B41F420910201309100
:100A300003013093860120938501209100013091BC
:100A400001012115310541F42DB73EB74091040154
:100A500050910501241B350BE0918501F091860131
:100A6000E217F307A0F42E1B3F0B2817390778F085
:100A7000AC014E5F5F4F2417350748F04E0F5F1FE4
:100A800050938601409385018193919302C0E0E0E9
:100A9000F0E0CF01DF91CF911F910F910895CF9397
:100AA000DF93009709F481C0FC0132971382128210
:100AB000A0918701B0918801109781F42081318144
:100AC000820F931F209185013091860128173907E5
:100AD00051F5F0938601E093850167C0ED0120E0B8
:100AE00030E0CE17DF0740F44A815B819E0141155B
:100AF0005105F1F0EA01F5CFD383C28340815181E2
:100B0000840F951FC817D90759F488819981840FDC
:100B1000951F0296918380838A819B819383828330
:100B20002115310529F4F0938801E09387013DC038
:100B3000E901FB83EA8349915991C40FD51FEC1752
:100B4000FD0761F480819181840F951F0296E90170
:100B500099838883828193819B838A83E0E0F0E09C
:100B600012968D919C911397009719F0FD01DC016D
:100B7000F7CF8D919C9111979D012E5F3F4F820F72
:100B8000931F20918501309186012817390769F458
:100B9000309729F4109288011092870102C01382C5
:100BA0001282B0938601A0938501DF91CF910895C1
:100BB000FC010590615070400110D8F78095909528
:100BC0008E0F9F1F0895DC0101C06D93415050406E
:100BD000E0F70895FC016150704001900110D8F7D2
:100BE000809590958E0F9F1F08950F931F93CF931D
:100BF000DF93FB01238121FD03C08FEF9FEF2CC00A
:100C000022FF16C046815781248135814217530740
:100C100044F4A081B1819D012F5F3F4F3183208338
:100C20008C93268137812F5F3F4F3783268314C0F3
:100C30008B01EC01FB010084F185E02D0995892BE6
:100C4000E1F6D80116968D919C911797019617960B
:100C50009C938E931697CE01DF91CF911F910F91A8
:100C60000895FA01AA27283051F1203181F1E89442
:100C70006F936E7F6E5F7F4F8F4F9F4FAF4FB1E08F
:100C80003ED0B4E03CD0670F781F891F9A1FA11D8A
:100C9000680F791F8A1F911DA11D6A0F711D811D8B
:100CA000911DA11D20D009F468943F912AE0269F50
:100CB00011243019305D3193DEF6CF010895462FAF
:100CC0004770405D4193B3E00FD0C9F7F6CF462F90
:100CD0004F70405D4A3318F0495D31FD40524193F9
:100CE00002D0A9F7EACFB4E0A695979587957795B6
:100CF0006795BA95C9F700976105710508959B013D
:100D0000AC010A2E06945795479537952795BA95C5
:100D1000C9F7620F731F841F951FA01D08952F929E
:100D20003F924F925F926F927F928F929F92AF927B
:100D3000BF92CF92DF92EF92FF920F931F93CF93C8
:100D4000DF93CDB7DEB7CA1BDB0B0FB6F894DEBF5F
:100D50000FBECDBF09942A88398848885F846E8485
:100D60007D848C849B84AA84B984C884DF80EE80CF
:100D7000FD800C811B81AA81B981CE0FD11D0FB6D8
:100D8000F894DEBF0FBECDBFED010895F894FFCFFC
:100D90000000890120000A0D47616D6550616420E3
:100DA00063616C6962726174696F6E207620302EA7
:100DB000310A0D0043454E544552203A20005B2530
:100DC000642C25645D0A0D00406563686F3A202538
:100DD000630A0D001B5B324A1B5B480078202564C8
:100DE0000A0D00792025640A0D004449523A202555
:100DF000640A0D00736C696465724C2025640A0DE9
:0E0E000000736C69646572522025640A0D004F
:00000001FF
