:100000000C9438000C9455000C9455000C94550039
:100010000C9455000C9455000C9455000C9455000C
:100020000C9455000C9455000C9455000C945500FC
:100030000C9455000C9455000C9455000C945500EC
:100040000C9455000C9455000C9455000C94D80158
:100050000C9455000C9455000C9455000C94B2016E
:100060000C9455000C9455000C9455000C945500BC
:1000700011241FBECFEFD4E0DEBFCDBF11E0A0E062
:10008000B1E0E0E1FEE002C005900D92A83FB107AB
:10009000D9F722E0A8EFB1E001C01D92A530B20768
:1000A000E1F70E940C020C9406070C9400000F93D9
:1000B0001F93CF938C01FC016081718176956795C8
:1000C000769567957695679581E30E94E200F80141
:1000D00060816295660F607E82E30E94E200F80113
:1000E000628185E30E94E200C0E009C0F801EC0FE4
:1000F000F11D638186E38C0F0E94E200CF5FF8015F
:100100008281C81798F380E00E94F600CF911F917A
:100110000F910895FF920F931F93CF93DF938C015C
:100120008BE0F80111928A95E9F782E60E94D000EF
:10013000C82FC295C695C77081E60E94D00090E096
:10014000880F991F880F991F880F991F8C2BF80112
:100150009183808385E60E94D000F82EF801828387
:10016000C0E0D0E009C08C2F8A590E94D000F8016D
:10017000EC0FFD1F838321968F2D90E0C817D907C0
:1001800094F3C801DF91CF911F910F91FF900895D3
:100190000E94910180EC0E9478010E9481010895E3
:1001A000CF93C82F0E94910183E00E9478018C2F89
:1001B0000E9478010E947C01C82F0E9481018C2F2F
:1001C000CF910895CF93DF93D82FC62F0E9491012E
:1001D00082E00E9478018D2F0E9478018C2F0E946E
:1001E00078010E948101DF91CF910895CF93C82FAC
:1001F0000E9491018BEAC89F812D11248695982F2A
:10020000990F890FC81B31F0C13031F0C23031F085
:1002100081E805C081E803C082E801C084E80E944B
:1002200078010E948101CF9108951F93CF93DF93AE
:10023000182FD62FC42F0E94910185E00E947801CB
:10024000812F0E9478018D2F0E9478018C2F0E94AF
:1002500078010E948101DF91CF911F910895CF9382
:10026000DF93D82F0E9485010E94C8008EE00E9473
:10027000D000C82F807E8038D1F086E091E09F9337
:100280008F930E9441041F9280E88F931F92CF9317
:100290008BE391E09F938F930E9441048DB79EB7AB
:1002A00008960FB6F8949EBF0FBE8DBF1EC08AE59C
:1002B00091E09F938F930E9441044D2F60EE8FE059
:1002C0000E9415011F92DF9381E891E09F938F9325
:1002D0000E94410441E06FEF8BE20E9415010F90F4
:1002E0000F900F900F900F900F90DF91CF91089586
:1002F0008FB9779BFECF08958AEA0E9478018FB16B
:10030000089588B3806188BB089587B3806B87BBED
:100310008DB181658DB98DB1837F8DB90E948101C9
:10032000089588B38F7E88BB0895F89490BD89B9ED
:1003300088ED8AB98EE880BD60E070E088EC91E0DD
:100340000E94BA039093F9018093F80190930202FE
:1003500080930102789487B3866087BB88B38660F8
:1003600088BB08951F920F920FB60F9211248F939E
:100370009F9398B384E0892788BB9F918F910F90BA
:100380000FBE0F901F9018955D9BFECF8CB90895FE
:100390000E94C40180E090E008958BB18C7131F42B
:1003A00098B382E0892788BB8CB108958FEF0895B8
:1003B0001F920F920FB60F9211242F933F934F93DA
:1003C0005F936F937F938F939F93AF93BF93EF93BD
:1003D000FF930E94CD018093FA018091FA011F9250
:1003E0008F9383E991E09F938F930E9441040F9034
:1003F0000F900F900F90FF91EF91BF91AF919F9150
:100400008F917F916F915F914F913F912F910F90BD
:100410000FBE0F901F901895EF92FF920F931F93AE
:10042000CF93DF93CDB7DEB766970FB6F894DEBFF4
:100430000FBECDBF8FE190E00E94950180E40E9445
:100440002F01CE0101962BE0FC0111922A95E9F7CC
:1004500021E030E03A83298322E02B8321EC2C83B6
:1004600020EA2D8323E32E830E9457008CE20E9412
:10047000D00081701F928F938FE991E09F938F93AB
:100480000E944104CE010C960E948A008E85E82EBF
:10049000F12C1F928F938D858F938C858F9384EB96
:1004A00091E09F938F930E9441040FB6F894DEBFB2
:1004B0000FBECDBF00E010E015C0EFE0F0E0EC0FA4
:1004C000FD1FE00FF11F80811F928F9383ED91E05C
:1004D0009F938F930E9441040F5F1F4F0F900F90C7
:1004E0000F900F900E151F0544F340E061E08CE281
:1004F0000E9415018CE20E94D00081701F928F93A0
:1005000086ED91E09F938F930E9441040F900F908E
:100510000F900F9080E090E066960FB6F894DEBFE3
:100520000FBECDBFDF91CF911F910F91FF90EF9044
:1005300008950F931F93CF93DF938230910510F4AA
:1005400082E090E0E091FD01F091FE0120E030E0DA
:10055000A0E0B0E0309719F1408151810281138110
:1005600048175907C8F08417950769F4109731F0B8
:1005700012960C93129713961C9327C00093FD01BB
:100580001093FE0122C02115310519F042175307BF
:1005900018F49A01BD01EF01DF01F801DBCF21154D
:1005A0003105F9F0281B390B2430310580F48A819C
:1005B0009B816115710521F0FB019383828304C047
:1005C0009093FE018093FD01FE01329644C0FE012E
:1005D000E20FF31F819391932250310939832883CD
:1005E0003AC02091FB013091FC01232B41F4209172
:1005F0000201309103013093FC012093FB01209113
:100600000001309101012115310541F42DB73EB7AC
:100610004091040150910501241B350BE091FB0131
:10062000F091FC01E217F307A0F42E1B3F0B2817F3
:10063000390778F0AC014E5F5F4F2417350748F05B
:100640004E0F5F1F5093FC014093FB0181939193E8
:1006500002C0E0E0F0E0CF01DF91CF911F910F9158
:100660000895CF93DF93009709F481C0FC0132977E
:1006700013821282A091FD01B091FE01109781F4C6
:1006800020813181820F931F2091FB013091FC0169
:100690002817390751F5F093FC01E093FB0167C07F
:1006A000ED0120E030E0CE17DF0740F44A815B81A6
:1006B0009E0141155105F1F0EA01F5CFD383C283C4
:1006C00040815181840F951FC817D90759F488813B
:1006D0009981840F951F0296918380838A819B81E3
:1006E000938382832115310529F4F093FE01E09371
:1006F000FD013DC0E901FB83EA8349915991C40F93
:10070000D51FEC17FD0761F480819181840F951F3F
:100710000296E90199838883828193819B838A83EE
:10072000E0E0F0E012968D919C911397009719F0FC
:10073000FD01DC01F7CF8D919C9111979D012E5FFA
:100740003F4F820F931F2091FB013091FC0128172E
:10075000390769F4309729F41092FE011092FD01D7
:1007600002C013821282B093FC01A093FB01DF91BF
:10077000CF9108950F931F93CF93DF93009731F498
:100780006115710519F480E090E03AC08B01EC012D
:100790006EE070E081E090E00E943806FC01892B59
:1007A00091F380E883830115110571F013870287A7
:1007B00081E883838091FF0190910002892B21F4CD
:1007C000F0930002E093FF012097C9F0D187C08722
:1007D0008381826083838091010290910202892B40
:1007E00071F4F0930202E093010280910302909170
:1007F0000402892B21F4F0930402E0930302CF0159
:10080000DF91CF911F910F9108950F931F93CF9375
:10081000DF93FB01238121FD03C08FEF9FEF2CC0ED
:1008200022FF16C046815781248135814217530724
:1008300044F4A081B1819D012F5F3F4F318320831C
:100840008C93268137812F5F3F4F3783268314C0D7
:100850008B01EC01FB010084F185E02D0995892BCA
:10086000E1F6D80116968D919C91179701961796EF
:100870009C938E931697CE01DF91CF911F910F918C
:100880000895A0E0B0E0E7E4F4E00C94DF06AE01E8
:100890004B5F5F4FFA0161917191AF01809101024D
:1008A000909102020E945704E2E00C94FB06ABE038
:1008B000B0E0EDE5F4E00C94CF066C017B018A0119
:1008C000FC0117821682838181FFCCC1CE01019683
:1008D0003C01F6019381F70193FD859193FF81918E
:1008E0007F01882309F4BAC1853239F493FD8591DB
:1008F00093FF81917F01853229F4B60190E00E9437
:100900000504E7CF912C212C312CFFE1F315D8F011
:100910008B3279F038F4803279F08332A1F4232DD0
:1009200020611DC08D3261F0803369F4232D216078
:1009300016C0832D8260382EE32DE4603E2E2AC03F
:10094000F32DF8601DC037FC2DC020ED280F2A3094
:1009500040F08E32B9F436FC81C1232D2064322E52
:1009600019C036FE06C08AE0989E200D1124922EF2
:1009700011C0EAE02E9E200D1124222EF32DF062EC
:100980003F2E08C08C3621F4832D8068382E02C09B
:10099000883641F4F70193FD859193FF81917F01A2
:1009A0008111B3CF982F9F7D9554933028F40C5F1D
:1009B0001F4F9FE399830DC0833631F0833771F069
:1009C000833509F059C021C0F801808189830E5F09
:1009D0001F4F88248394912C530113C02801F2E007
:1009E0004F0E511CF801A080B18036FE03C0692D66
:1009F00070E002C06FEF7FEFC5010E9466064C01F8
:100A00008201F32DFF773F2E16C0280122E0420E0F
:100A1000511CF801A080B18036FE03C0692D70E042
:100A200002C06FEF7FEFC5010E9454064C01F32D09
:100A3000F0683F2E820133FC1BC0822D90E08816A7
:100A40009906B0F4B60180E290E00E9405042A9471
:100A5000F4CFF50137FC859137FE81915F01B60136
:100A600090E00E94050421102A9421E0821A910846
:100A70008114910471F7E8C0843611F0893641F58C
:100A8000F80137FE07C060817181828193810C5F1C
:100A90001F4F08C060817181072E000C880B990BD5
:100AA0000E5F1F4FF32DFF763F2E97FF09C09095E5
:100AB0008095709561957F4F8F4F9F4FF0683F2EC7
:100AC0002AE030E0A3010E947106882E861845C0F6
:100AD000853731F4232D2F7EB22E2AE030E025C059
:100AE000932D997FB92E8F36C1F018F4883579F09F
:100AF000B5C0803719F0883721F0B0C0E92FE06128
:100B0000BE2EB4FE0DC0FB2DF460BF2E09C034FE16
:100B10000AC0292F2660B22E06C028E030E005C0AA
:100B200020E130E002C020E132E0F801B7FE07C06A
:100B300060817181828193810C5F1F4F06C060814B
:100B4000718180E090E00E5F1F4FA3010E9471064B
:100B5000882E8618FB2DFF773F2E36FE0DC0232DE5
:100B60002E7FA22E891458F434FE0BC032FC09C02B
:100B7000832D8E7EA82E05C0B82CA32C03C0B82CC4
:100B800001C0B92CA4FE0FC0FE01E80DF11D80814B
:100B9000803321F49A2D997EA92E09C0A2FE06C0A9
:100BA000B394B39404C08A2D867809F0B394A3FC5F
:100BB00011C0A0FE06C0B21488F4280C922C9B1819
:100BC0000EC0B21460F4B60180E290E00E94050409
:100BD000B394F7CFB21418F42B1802C0982C212C20
:100BE000A4FE10C0B60180E390E00E940504A2FEBE
:100BF00017C0A1FC03C088E790E002C088E590E040
:100C0000B6010CC08A2D867859F0A1FE02C08BE295
:100C100001C080E2A7FC8DE2B60190E00E940504CD
:100C2000891438F4B60180E390E00E9405049A9498
:100C3000F7CF8A94F301E80DF11D8081B60190E0B1
:100C40000E9405048110F5CF222009F442CEB6019E
:100C500080E290E00E9405042A94F6CFF601868196
:100C6000978102C08FEF9FEF2B96E2E10C94EB0689
:100C70000F931F93CF93DF93869F8001879F100D63
:100C8000969F100D1124C8010E949902EC01009753
:100C900029F0A80160E070E00E945F06CE01DF91BC
:100CA000CF911F910F910895FC0105906150704004
:100CB0000110D8F7809590958E0F9F1F0895DC0145
:100CC00001C06D9341505040E0F70895FC01615020
:100CD000704001900110D8F7809590958E0F9F1F5E
:100CE0000895FA01AA27283051F1203181F1E894C2
:100CF0006F936E7F6E5F7F4F8F4F9F4FAF4FB1E00F
:100D00003ED0B4E03CD0670F781F891F9A1FA11D09
:100D1000680F791F8A1F911DA11D6A0F711D811D0A
:100D2000911DA11D20D009F468943F912AE0269FCF
:100D300011243019305D3193DEF6CF010895462F2E
:100D40004770405D4193B3E00FD0C9F7F6CF462F0F
:100D50004F70405D4A3318F0495D31FD4052419378
:100D600002D0A9F7EACFB4E0A69597958795779535
:100D70006795BA95C9F700976105710508959B01BC
:100D8000AC010A2E06945795479537952795BA9545
:100D9000C9F7620F731F841F951FA01D08952F921E
:100DA0003F924F925F926F927F928F929F92AF92FB
:100DB000BF92CF92DF92EF92FF920F931F93CF9348
:100DC000DF93CDB7DEB7CA1BDB0B0FB6F894DEBFDF
:100DD0000FBECDBF09942A88398848885F846E8405
:100DE0007D848C849B84AA84B984C884DF80EE804F
:100DF000FD800C811B81AA81B981CE0FD11D0FB658
:100E0000F894DEBF0FBECDBFED010895F894FFCF7B
:100E10000000050220000A4D43503235313520696B
:100E200073204E4F5420696E20636F6E666967753C
:100E3000726174696F6E206D6F64652061667465A0
:100E400072207265736574210A0D007265616420F9
:100E500076616C75653A2025782073686F756C64CF
:100E60002062653A2025780A0D000A4D435032353C
:100E7000313520697320696E20636F6E666967750E
:100E8000726174696F6E206D6F64652E2E2E0A0D6F
:100E90000073657420746F204D4F44453A202578C7
:100EA0000A0D00406563686F3A2025630A0D0069EA
:100EB0006E7465727275707420666C61673A202575
:100EC000780D0A0072656365697665643A20257855
:100ED0003A206C6F6E672025642062797465733ADE
:100EE0003A20002578000A0D697320697420434C6C
:100EF00045415245443F3A20696E7420666C6167F3
:080F00003A2025780D0A0000DB
:00000001FF
